:0400000090EFFFF08E
:020000040001F9
:10FF0E0088981200889A1200889C12000F01889E11
:10FF1E0012000001DFEFFFF00F011999898812001E
:10FF2E000F01219B8A8A1200E0CFE8FF0001E8CF83
:10FF3E006CF0350E6B6F6B2FFED76CC0E0FF1200AE
:10FF4E00E0CFE8FF0001E8CF6AF0640E696F350E6E
:10FF5E00686F682FFED7692FFAD76AC0E0FF350C9D
:10FF6E00E0CFE8FF0001E8CF67F0C80E666F640EC1
:10FF7E00656F350E646F642FFED7652FFAD7662F27
:10FF8E00F6D767C0E0FF350CE0CFE8FF0001E8CF01
:10FF9E0063F0280E626F640E616F350E606F602F16
:10FFAE00FED7612FFAD7622FF6D763C0E0FF350C6C
:10FFBE0093ECFFF097ECFFF087ECFFF089ECFFF08D
:10FFCE008BECFFF08DECFFF08388B7ECFFF083989D
:10FFDE00B7ECFFF08FBA03D08388838A02D0839860
:10FFEE00839A8EB803D0838C838EEED7839C839EA8
:02FFFE00EBD73F
:020000040020DA
:10000000FF0FFF0FFF0FFF0FFF0FFF0FFF0FFF0F80
:020000040030CA
:0C0000008CFFFFF7ACCFFFFFFFFFFFFFFE
:00000001FF
