:04000000B2EFFFF06C
:020000040001F9
:10FF540088981200889A1200889C1200889E1200C9
:10FF64000001EDEFFFF00F011999898812000F01CC
:10FF7400219B8A8A1200E0CFE8FF0001E8CF6CF0F1
:10FF8400350E6B6F6B2FFED76CC0E0FF1200E0CF15
:10FF9400E8FF0001E8CF6AF07C0E696F692FFED795
:10FFA4006AC0E0FF1200E0CFE8FF0001E8CF67F08D
:10FFB400350E666F662FFED767C0E0FF1200E0CFF4
:10FFC400E8FF0001E8CF63F0350E626F622FFED7C1
:10FFD40063C0E0FF1200AAECFFF0ACECFFF0AEEC63
:10FFE400FFF0B0ECFFF0B5ECFFF0B9ECFFF0838864
:0CFFF400BDECFFF08398BDECFFF0F9D7E6
:020000040020DA
:10000000FF0FFF0FFF0FFF0FFF0FFF0FFF0FFF0F80
:020000040030CA
:0C0000008CFFFFF7ACCFFFFFFFFFFFFFFE
:00000001FF
