:040000002BEF00F0F2
:100008005B820E01CAAB0BEF00F00DEF00F017EFAB
:1000180000F0CA9BF40E026E240E016E24ECACF0C4
:10002800010E0101506F0E01CEA11DEF00F01FEF70
:1000380000F029EF00F0CE914E0E026E200E016EF8
:100048001BECACF0010E0101516F5B92110067EFE0
:02005800A7F00F
:10F66A000031323341343536422A3023443738396F
:10F67A0043785801B64A01684E01785801B64A01E2
:10F68A00024E012A4901443901384B016A580138AE
:10F69A003801A04401A44801344A01B24C01412373
:10F6AA00323041233230BF0002020304030504064C
:10F6BA000A00FE07FE07000142029207B320050076
:10F6CA0062072107394367A80022079B522759017D
:10F6DA00230D3D42AF4C69A86AA8322500240B3D90
:10F6EA004237AF7AA7B42300250B3D422FAAEEAAD0
:10F6FA00251300260C3D422FA798729564540127C2
:10F70A00051953672808BB42379575012908BB427A
:10F71A00279755092A0A2D4627A76AA876002B0A91
:10F72A002D4637A3386446112C079B3E4F95002D72
:10F73A00060D4E67082E079B3E2FAD042F0B3D4248
:10F74A001F6594BB514600300A3D4237A7DA4E7511
:10F75A0004310C3D4237CB94514619C521320C3D38
:10F76A00426FE58CA2CC190D01330C3D42676894B7
:10F77A00B3863A2D00340C3D423FCB54A6A1334AFE
:10F78A0000350B3D42E746C9CC48A705360B3D423A
:10F79A0057E68C92A9D302370C3D4267689433CA64
:10F7AA0035CA00380B3D426F659D56D66901390C42
:10F7BA003D426F65A95446394A003A0ABB3E2FAD0D
:10F7CA000CD34A003B09BB3E2FAD0C55093C0ABC81
:10F7DA00423FB6514619053D081D4A676838043E3E
:10F7EA000BBC4227A38C328A6D003F0A3D426FE56B
:10F7FA0036CA7404400B3D426F65B99295E10241E5
:10F80A000B3D4237A75A8F917500420C3D4267C49F
:10F81A002AA659C5A100430C3D426F658D32CA28FC
:10F82A00A705440D3D4267C42AA698628A4301454A
:10F83A000C3D42E746198D94514643460D3D42E739
:10F84A0046198D9451461901470C3D426F658D3218
:10F85A008A3B2D0048093D4227DB63643B4908BBCC
:10F86A004267C5AE014A0C3D42776794514665949A
:10F87A00004B0B3D4227CB54EA14AB1C4C0E3D42C5
:10F88A0027A38C32CA28A38C86004D0A3D4227EB57
:10F89A00B592B6034E0A3D4227EBA992DC3A4F09CC
:10F8AA003D426F65EFB400500D3D4267A4AC87CA74
:10F8BA0028A38C00510A453E6F65AF6AC300520BFC
:10F8CA003D4267A4AC872AAB1C530B3D426F650DC2
:10F8DA0037D46901540E3D4267C88C32CA28A38CBA
:10F8EA00220055083D4227FB4E0B560B3D4227DBB3
:10F8FA00A94C31E508570A3D4227BB924A7700587E
:10F90A000A3D4227EB5457B50E590C3D4227EB549A
:10F91A0067945146115A0A3D42676894BBD1105BFD
:10F92A0008BB4267C4CE015C0D3D4227A30C33CC11
:10F93A0030C38C025D08BB4267768E005E071D529B
:10F94A0037A73A5F060D3E67086006125B27066115
:10F95A000A2D426FC334741A01620C3D4227A38CEC
:10F96A0092A9A75200630A2D426F658D725A0064EC
:10F97A000B3D421F6594CC2D950A650A2D426FE511
:10F98A0031325C00660C3D42575679C48C32CA004B
:10F99A00670C3D3A6F689D46463A2D00680B3D421A
:10F9AA0027A38C92A9ED006908BB422F23D91A6AB2
:10F9BA000BCC3A3F635D4B9914006B0C3D4227A375
:10F9CA008CB24CB3CA016C07BB4247F61A6D0A2DBA
:10F9DA004247B5545249076E082D422799DA0E6FED
:10F9EA00092D426F653B2D00700C3D3A27997A2A02
:10F9FA0095514600710B3D3ACFDC52A98C320A72FE
:10FA0A000B2D4227991A65941100730A2D426F65CE
:10FA1A00B8E15000740D3D422FA33C624619C5A8B7
:10FA2A000075082D42273B950A760A2D4227EB548A
:10FA3A00A61C0177092D42275B49750178092D42D9
:10FA4A0027A7BAAA03790B3D3A279B4A65A4D30292
:10FA5A007A082D4267E8F6107B0BBC42576594344E
:10FA6A008A19097C063943E7087D0CBC4247A398EA
:10FA7A0091CA2849007E091D522FAA241300A00505
:10FA8A00006207A1073943270D01A20C3D3E370F3B
:10FA9A0015534C79C408A30B3D4257567967149500
:10FAAA0002A40A2D4227A799E2CA01A50D453E27BD
:10FABA00EB54C72133CA2802A6063943670DA70BA0
:10FACA00453E6F65343B374A0BA8068B5E2705A96E
:10FADA000C3D426F6595A64A3A2D00AA0AB4466FB4
:10FAEA0044A56A3402AB0B2E42B78A29E698630012
:10FAFA00AC07944A67E400AD068C4E6704AE0B3D32
:10FB0A00426FE591E6D46901AF060D5E6708B0065B
:10FB1A009B52AF0BB10B354237A33864467108B21A
:10FB2A0008AC4E4FC5E608B30AAC4E67A3A4D14849
:10FB3A0000B406125B4F01B50A353E27DB53A98C88
:10FB4A0000B60E3D426F8C34525231C5145300B781
:10FB5A0005094F27B806123B4F01B907AB4E2FC90B
:10FB6A006ABA0AB4464F4599341C01BB0C2E422787
:10FB7A00E698638A294600BC104E3E2F230D33CCEB
:10FB8A006866A4531C1906BD104E3E2F230D33CCB4
:10FB9A00686554C38C321ABE0E4D3E47C39C6194AD
:10FBAA0059A634320ABF0A3D4237D319E5D602C0F4
:10FBBA000C45422FC3BCB21E23EB00C10B4542BF0A
:10FBCA005E598F917500C20C454237A7B8B21E2301
:10FBDA00EB00C30C45422F2AB9B21E23EB00C40B1B
:10FBEA004542AFA656D663641DC50C454237A7B831
:10FBFA00B21E23EB00C60B3E4277A4B239466C0E06
:10FC0A00C70D4D3A6F658D32CA28A75D03C80E45E8
:10FC1A00422F8F8D321A29A38C8600C90E45423F86
:10FC2A008D8D321A29A38C8600CA0E4542378E8DD5
:10FC3A00321A29A38C8600CB0E4542AF1A1B6534B3
:10FC4A005246190D01CC09C34227A7155B03CD09FA
:10FC5A00C34237A5155B03CE09C342AF1A29B606BC
:10FC6A00CF09C34227E5155B03D00D3D4267C42A7D
:10FC7A008E54A6381400D10B454237754F95E4D6F9
:10FC8A0001D20B45422FC3BCB23B2D00D30A4542D9
:10FC9A00BF5ED99D1600D40B454237A7B8B23B2D9B
:10FCAA0000D50A454237355776A705D60A4542AFE9
:10FCBA00A65676A705D7092D4227A7BAAA03D80BB5
:10FCCA003D426FC52BCD991600D90A45422FC3DA9A
:10FCDA003B2D00DA094542BFCCDE6901DB0B454208
:10FCEA0037A78CB33B2D00DC0A4542AFC6D93B2D62
:10FCFA0000DD0C4542BFCC3AD519651401DE0E3D34
:10FD0A004227A391F2501965941100DF0B3D426F0F
:10FD1A006599CA2A2B05E00C45422FC34C6E98867A
:10FD2A004E23E10B4542BF26374C43A711E20C454F
:10FD3A004237A74C6D98864E23E30C454237B5A946
:10FD4A000DD3D06904E40B3D42AFA6364C43A7114C
:10FD5A00E50C454237A79C374C43A711E60B2E42C8
:10FD6A006F64548D998700E70B3D3A6F658D72DA9F
:10FD7A003500E80C45422FC34CAE3C46860BE90BD6
:10FD8A004542BF26571E23C305EA0C454237A74CF6
:10FD9A00AD3C46860BEB0B3D42AFA6561E23C30570
:10FDAA00EC09C3422767245B03ED08C342AF86B25E
:10FDBA0035EE08C342AF2D5B03EF08BB422765D976
:10FDCA001AF00B3D424743B9B29D1600F10A45426B
:10FDDA0037B57132B51DF20B45422FC34CAE6CA735
:10FDEA0005F30A4542BF2657B6D302F40B454237FC
:10FDFA00A74CAD6CA705F50B454237B5A995EDB4EF
:10FE0A0000F60A3D42AFA656B6D302F7092D463789
:10FE1A0053435311F80A2D426FC895E65000F90B67
:10FE2A0045422FC34C65A75201FA0A4542BFA6B202
:10FE3A0053A900FB0B454237A78CB353A900FC0A10
:10FE4A003D42AFC6D9A95400FD0C4D3ABFCCA652CB
:10FE5A0019E9B400FE0D453A27A391B23D5446195B
:10FE6A0001FF0D4D3AAFC6D9542A239D1600000052
:10FE7A000004FFFF00001815AE15D5168015A81648
:10FE8A002715D316001540158D16141520160015C2
:10FE9A00A115C815DA1610158116AF15D916F11560
:10FEAA00DB1620152E15A415A619FF1815AE15D5A3
:10FEBA0015A8162715D316001540158D16141520EA
:10FECA00160015A115C815DA1602158116AF15D92F
:10FEDA0016F115DB1620152E15A415A619FF00011B
:10FEEA0000000000000000093D00000400000101BC
:10FEFA000000080008000001140A6464323200128B
:10FF0A007A00000428960C052000600027000001F2
:10FF1A00140A6464323200127A00000428960C052E
:10FF2A000020600028001815A015C0154019FF18F8
:10FF3A0015A115C8157F19FF785801B64A01AA54A8
:10FF4A00011815A015C019FF1815A115C819FF1811
:10FF5A0015AE19FF1815AF19FF416C65727465204B
:10FF6A0044616E676572202100456E7472657A205D
:10FF7A00636F646520210044E97465637465757272
:10FF8A00206F666600436F6465206572726F6E6EDD
:10FF9A00E900456E7472657A20636F64653A0044BD
:10FFAA00E974656374657572206F6E004269656EE7
:10FFBA0076656E75650044E974656374696F6E00F1
:10FFCA0043616C6C2039313100436F646520626F84
:10FFDA006E005761726E696E670020302000203112
:10FFEA002000203220002033200020342000203539
:06FFFA002000202A000097
:020000040001F9
:10000000000E0101566F7EEC97F00101606FF6EC77
:10001000A7F001016051D8B410EF80F012EF80F02A
:100020001BEF80F056516019D8B419EF80F01BEF28
:1000300080F009EF80F060C156F1AC0EF66EF60E5E
:10004000F76E000EF86E0800F5506019D8A42BEF7B
:1000500080F02DEF80F03BEF80F05A50D8A433EFC2
:1000600080F035EF80F03BEF80F0010E00018A6FE9
:100070005A2A3DEF8BF0AD0EF66EF60EF76E000EBF
:10008000F86E0800F5506019D8A449EF80F04BEFE6
:1000900080F058EF80F05A04D8A451EF80F053EF6D
:1000A00080F058EF80F0010E0001896F38EF80F08A
:1000B000AE0EF66EF60EF76E000EF86E0800F550F6
:1000C0006019D8A466EF80F068EF80F076EF80F0DA
:1000D000020E5A18D8A46FEF80F071EF80F076EF1F
:1000E00080F0010E0001886F38EF80F0AF0EF66EE1
:1000F000F60EF76E000EF86E0800F5506019D8A4E1
:1001000084EF80F086EF80F017EF81F0030E5A182D
:10011000D8A48DEF80F08FEF80F017EF81F00F0102
:10012000198B899A21818A80400E0001DE6F010EB1
:10013000DF6F000EE16F2F0EE06F000EE36F240EF5
:10014000E26FFC0EE46FFF0EE56F41ECA9F0400E8C
:100150002B6E010E2C6EBFECABF0050E91ECAAF0ED
:10016000400E0D6E010E0E6EEEECA2F0400E000180
:10017000DE6F010EDF6F000EE16F0A0EE06F000E02
:10018000E36F100EE26FD30EE46FFF0EE56F41ECEC
:10019000A9F0400E0001DE6F010EDF6F000EE16F6F
:1001A000040EE06F000EE36F180EE26F810EE46F35
:1001B000FF0EE56F41ECA9F0400E2B6E010E2C6E88
:1001C000BFECABF00F0E91ECAAF0400E0D6E010EDD
:1001D0000E6EEEECA2F0400E0001DE6F010EDF6F3E
:1001E000000EE16F110EE06F000EE36F180EE26F6C
:1001F000B60EE46FFF0EE56F41ECA9F0400E2B6EDA
:10020000010E2C6EBFECABF0010E00018B6F000EE7
:100210008A6F000E896F000E886F000E5A6E190EDD
:1002200091ECAAF0A5ECABF0F29E3DEF8BF0AC0E9A
:10023000F66EF60EF76E000EF86E0800F5506019B7
:10024000D8B425EF81F027EF81F0A3EF83F0605160
:10025000D8B42DEF81F02FEF81F0A3EF83F05A5047
:10026000D8A435EF81F037EF81F0A3EF83F0000ED3
:100270000001886F000E8A6F000E896F400E0D6EB0
:10028000010E0E6EEEECA2F0400E0001DE6F010ECC
:10029000DF6F000EE16F0A0EE06F000EE36F180EC5
:1002A000E26F8F0EE46FFF0EE56F41ECA9F0400E98
:1002B0002B6E010E2C6EBFECABF00A0E91ECAAF087
:1002C000400E0D6E010E0E6EEEECA2F0400E00011F
:1002D000DE6F010EDF6F000EE16F180EE06F000E93
:1002E000E36F180EE26FDC0EE46FFF0EE56F41EC7A
:1002F000A9F0400E2B6E010E2C6EBFECABF0050E7C
:1003000091ECAAF0400E0D6E010E0E6EEEECA2F016
:10031000400E0001DE6F010EDF6F000EE16F180E60
:10032000E06F000EE36F180EE26FDC0EE46FFF0E5D
:10033000E56F41ECA9F0400E0001DE6F010EDF6FAA
:10034000000EE16F230EE06F000EE36F200EE26FF0
:10035000F80EE46FFF0EE56F41ECA9F0400E2B6E36
:10036000010E2C6EBFECABF0050E91ECAAF0400E26
:100370000D6E010E0E6EEEECA2F0400E0001DE6F6F
:10038000010EDF6F000EE16F180EE06F000EE36FDD
:10039000180EE26FDC0EE46FFF0EE56F41ECA9F082
:1003A000400E0001DE6F010EDF6F000EE16F230EC5
:1003B000E06F000EE36F200EE26FF40EE46FFF0EAD
:1003C000E56F41ECA9F0400E2B6E010E2C6EBFECD8
:1003D000ABF0050E91ECAAF0400E0D6E010E0E6E04
:1003E000EEECA2F0400E0001DE6F010EDF6F000E9A
:1003F000E16F180EE06F000EE36F180EE26FDC0E77
:10040000E46FFF0EE56F41ECA9F0400E0001DE6FD6
:10041000010EDF6F000EE16F230EE06F000EE36F41
:10042000200EE26FF00EE46FFF0EE56F41ECA9F0D5
:10043000400E2B6E010E2C6EBFECABF0050E91EC56
:10044000AAF0400E0D6E010E0E6EEEECA2F0400E04
:100450000001DE6F010EDF6F000EE16F180EE06F1E
:10046000000EE36F180EE26FDC0EE46FFF0EE56F17
:1004700041ECA9F0400E0001DE6F010EDF6F000EAF
:10048000E16F230EE06F000EE36F200EE26FEC0EC3
:10049000E46FFF0EE56F41ECA9F0400E2B6E010EEC
:1004A0002C6EBFECABF0050E91ECAAF0400E0D6E79
:1004B000010E0E6EEEECA2F0400E0001DE6F010E9A
:1004C000DF6F000EE16F180EE06F000EE36F180E85
:1004D000E26FDC0EE46FFF0EE56F41ECA9F0400E19
:1004E0000001DE6F010EDF6F000EE16F230EE06F83
:1004F000000EE36F200EE26FE80EE46FFF0EE56F73
:1005000041ECA9F0400E2B6E010E2C6EBFECABF04F
:10051000050E91ECAAF0400E0D6E010E0E6EEEEC83
:10052000A2F0400E0001DE6F010EDF6F000EE16FE2
:10053000180EE06F000EE36F180EE26FDC0EE46F32
:10054000FF0EE56F41ECA9F0400E0001DE6F010ED9
:10055000DF6F000EE16F230EE06F000EE36F200EE1
:10056000E26FE40EE46FFF0EE56F41ECA9F0400E80
:100570002B6E010E2C6EBFECABF0050E91ECAAF0C9
:10058000400E0D6E010E0E6EEEECA2F0400E00015C
:10059000DE6F010EDF6F000EE16F060EE06F000EE2
:1005A000E36F180EE26F730EE46FFF0EE56F41EC20
:1005B000A9F0400E2B6E010E2C6EBFECABF0000EBE
:1005C0000101556F41EF83F001015551D8A4EBEFC4
:1005D00082F0EDEF82F0F5EF82F00F0E91ECAAF0D1
:1005E000010E0101556F41EF83F05505D8A4FBEFD3
:1005F00082F0FDEF82F041EF83F0400E0D6E010EB0
:100600000E6EEEECA2F0400E0001DE6F010EDF6F09
:10061000000EE16F060EE06F000EE36F180EE26F42
:10062000630EE46FFF0EE56F41ECA9F0400E000190
:10063000DE6F010EDF6F000EE16F060EE06F000E41
:10064000E36F230EE26FCA0EE46FFF0EE56F41EC1D
:10065000A9F0400E2B6E010E2C6EBFECABF0838820
:10066000838A838C838E59ECACF0010E91ECAAF056
:100670008398839A839C839E57ECACF0010E91EC97
:10068000AAF07EEC97F0546EAC0EF66EF60EF76E96
:10069000000EF86E0800F5505418D8A452EF83F0FD
:1006A00054EF83F0E4EF82F0000E5A6E050E91ECE9
:1006B000AAF0400E0D6E010E0E6EEEECA2F0400E92
:1006C0003F6E010E406E000E426E190E416E000E1E
:1006D000446E1C0E436E000E466E260E456E000ED6
:1006E000486E0A0E476EE0EC9AF0400E0001DE6F95
:1006F000010EDF6F000EE16F100EE06F000EE36F72
:100700000A0EE26FC00EE46FFF0EE56F41ECA9F038
:10071000400E0001DE6F010EDF6F000EE16F0A0E6A
:10072000E06F000EE36F180EE26F9C0EE46FFF0E99
:10073000E56F41ECA9F0400E2B6E010E2C6EBFEC64
:10074000ABF03DEF8BF0AD0EF66EF60EF76E000ED1
:10075000F86E0800F5506019D8B4B1EF83F0B3EF2C
:1007600083F02BEF86F06051D8B4B9EF83F0BBEF84
:1007700083F02BEF86F05A04D8A4C1EF83F0C3EFC7
:1007800083F02BEF86F0000E5A6E000E00018A6F88
:10079000000E896F000E886F400E0D6E010E0E6EFA
:1007A000EEECA2F0400E0001DE6F010EDF6F000ED6
:1007B000E16F0A0EE06F000EE36F180EE26F8F0E0E
:1007C000E46FFF0EE56F41ECA9F0400E2B6E010EB9
:1007D0002C6EBFECABF00A0E91ECAAF0400E0D6E41
:1007E000010E0E6EEEECA2F0400E0001DE6F010E67
:1007F000DF6F000EE16F180EE06F000EE36F180E52
:10080000E26FDC0EE46FFF0EE56F41ECA9F0400EE5
:100810002B6E010E2C6EBFECABF0050E91ECAAF026
:10082000400E0D6E010E0E6EEEECA2F0400E0001B9
:10083000DE6F010EDF6F000EE16F180EE06F000E2D
:10084000E36F180EE26FDC0EE46FFF0EE56F41EC14
:10085000A9F0400E0001DE6F010EDF6F000EE16FA8
:10086000230EE06F000EE36F200EE26FF80EE46FD0
:10087000FF0EE56F41ECA9F0400E2B6E010E2C6EC1
:10088000BFECABF0050E91ECAAF0400E0D6E010E20
:100890000E6EEEECA2F0400E0001DE6F010EDF6F77
:1008A000000EE16F180EE06F000EE36F180EE26F9E
:1008B000DC0EE46FFF0EE56F41ECA9F0400E000185
:1008C000DE6F010EDF6F000EE16F230EE06F000E92
:1008D000E36F200EE26FF40EE46FFF0EE56F41EC64
:1008E000A9F0400E2B6E010E2C6EBFECABF0050E86
:1008F00091ECAAF0400E0D6E010E0E6EEEECA2F021
:10090000400E0001DE6F010EDF6F000EE16F180E6A
:10091000E06F000EE36F180EE26FDC0EE46FFF0E67
:10092000E56F41ECA9F0400E0001DE6F010EDF6FB4
:10093000000EE16F230EE06F000EE36F200EE26FFA
:10094000F00EE46FFF0EE56F41ECA9F0400E2B6E48
:10095000010E2C6EBFECABF0050E91ECAAF0400E30
:100960000D6E010E0E6EEEECA2F0400E0001DE6F79
:10097000010EDF6F000EE16F180EE06F000EE36FE7
:10098000180EE26FDC0EE46FFF0EE56F41ECA9F08C
:10099000400E0001DE6F010EDF6F000EE16F230ECF
:1009A000E06F000EE36F200EE26FEC0EE46FFF0EBF
:1009B000E56F41ECA9F0400E2B6E010E2C6EBFECE2
:1009C000ABF0050E91ECAAF0400E0D6E010E0E6E0E
:1009D000EEECA2F0400E0001DE6F010EDF6F000EA4
:1009E000E16F180EE06F000EE36F180EE26FDC0E81
:1009F000E46FFF0EE56F41ECA9F0400E0001DE6FE1
:100A0000010EDF6F000EE16F230EE06F000EE36F4B
:100A1000200EE26FE80EE46FFF0EE56F41ECA9F0E7
:100A2000400E2B6E010E2C6EBFECABF0050E91EC60
:100A3000AAF0400E0D6E010E0E6EEEECA2F0400E0E
:100A40000001DE6F010EDF6F000EE16F180EE06F28
:100A5000000EE36F180EE26FDC0EE46FFF0EE56F21
:100A600041ECA9F0400E0001DE6F010EDF6F000EB9
:100A7000E16F230EE06F000EE36F200EE26FE40ED5
:100A8000E46FFF0EE56F41ECA9F0400E2B6E010EF6
:100A90002C6EBFECABF0050E91ECAAF0400E0D6E83
:100AA000010E0E6EEEECA2F0400E0001DE6F010EA4
:100AB000DF6F000EE16F060EE06F000EE36F180EA1
:100AC000E26F730EE46FFF0EE56F41ECA9F0400E8C
:100AD0002B6E010E2C6EBFECABF0000E0101556FBA
:100AE000CFEF85F001015551D8A479EF85F07BEF68
:100AF00085F083EF85F00F0E91ECAAF0010E010155
:100B0000556FCFEF85F05505D8A489EF85F08BEFB1
:100B100085F0CFEF85F0400E0D6E010E0E6EEEECFF
:100B2000A2F0400E0001DE6F010EDF6F000EE16FDC
:100B3000060EE06F000EE36F180EE26F630EE46FB7
:100B4000FF0EE56F41ECA9F0400E0001DE6F010ED3
:100B5000DF6F000EE16F060EE06F000EE36F230EF5
:100B6000E26FCA0EE46FFF0EE56F41ECA9F0400E94
:100B70002B6E010E2C6EBFECABF08388838A838CC6
:100B8000838E59ECACF0010E91ECAAF08398839A15
:100B9000839C839E57ECACF0010E91ECAAF07EECA6
:100BA00097F0546EAD0EF66EF60EF76E000EF86E00
:100BB0000800F5505418D8A4E0EF85F0E2EF85F076
:100BC00072EF85F0000E5A6E010E91ECAAF0400E05
:100BD0000D6E010E0E6EEEECA2F0400E3F6E010E99
:100BE000406E000E426E190E416E000E446E1C0ED9
:100BF000436E000E466E260E456E000E486E0A0EBF
:100C0000476EE0EC9AF0400E0001DE6F010EDF6FE0
:100C1000000EE16F100EE06F000EE36F0A0EE26F40
:100C2000C00EE46FFF0EE56F41ECA9F0400E00012D
:100C3000DE6F010EDF6F000EE16F0A0EE06F000E37
:100C4000E36F180EE26F9C0EE46FFF0EE56F41EC50
:100C5000A9F09BEF83F0AE0EF66EF60EF76E000E67
:100C6000F86E0800F5506019D8B439EF86F03BEF04
:100C700086F0B4EF88F06051D8B441EF86F043EFCE
:100C800086F0B4EF88F0020E5A18D8A44AEF86F026
:100C90004CEF86F0B4EF88F0000E5A6E000E0001A3
:100CA0008A6F000E896F000E886F400E0D6E010E68
:100CB0000E6EEEECA2F0400E0001DE6F010EDF6F53
:100CC000000EE16F0A0EE06F000EE36F180EE26F88
:100CD0008F0EE46FFF0EE56F41ECA9F0400E2B6E16
:100CE000010E2C6EBFECABF00A0E91ECAAF0400E98
:100CF0000D6E010E0E6EEEECA2F0400E0001DE6FE6
:100D0000010EDF6F000EE16F180EE06F000EE36F53
:100D1000180EE26FDC0EE46FFF0EE56F41ECA9F0F8
:100D2000400E2B6E010E2C6EBFECABF0050E91EC5D
:100D3000AAF0400E0D6E010E0E6EEEECA2F0400E0B
:100D40000001DE6F010EDF6F000EE16F180EE06F25
:100D5000000EE36F180EE26FDC0EE46FFF0EE56F1E
:100D600041ECA9F0400E0001DE6F010EDF6F000EB6
:100D7000E16F230EE06F000EE36F200EE26FF80EBE
:100D8000E46FFF0EE56F41ECA9F0400E2B6E010EF3
:100D90002C6EBFECABF0050E91ECAAF0400E0D6E80
:100DA000010E0E6EEEECA2F0400E0001DE6F010EA1
:100DB000DF6F000EE16F180EE06F000EE36F180E8C
:100DC000E26FDC0EE46FFF0EE56F41ECA9F0400E20
:100DD0000001DE6F010EDF6F000EE16F230EE06F8A
:100DE000000EE36F200EE26FF40EE46FFF0EE56F6E
:100DF00041ECA9F0400E2B6E010E2C6EBFECABF057
:100E0000050E91ECAAF0400E0D6E010E0E6EEEEC8A
:100E1000A2F0400E0001DE6F010EDF6F000EE16FE9
:100E2000180EE06F000EE36F180EE26FDC0EE46F39
:100E3000FF0EE56F41ECA9F0400E0001DE6F010EE0
:100E4000DF6F000EE16F230EE06F000EE36F200EE8
:100E5000E26FF00EE46FFF0EE56F41ECA9F0400E7B
:100E60002B6E010E2C6EBFECABF0050E91ECAAF0D0
:100E7000400E0D6E010E0E6EEEECA2F0400E000163
:100E8000DE6F010EDF6F000EE16F180EE06F000ED7
:100E9000E36F180EE26FDC0EE46FFF0EE56F41ECBE
:100EA000A9F0400E0001DE6F010EDF6F000EE16F52
:100EB000230EE06F000EE36F200EE26FEC0EE46F86
:100EC000FF0EE56F41ECA9F0400E2B6E010E2C6E6B
:100ED000BFECABF0050E91ECAAF0400E0D6E010ECA
:100EE0000E6EEEECA2F0400E0001DE6F010EDF6F21
:100EF000000EE16F180EE06F000EE36F180EE26F48
:100F0000DC0EE46FFF0EE56F41ECA9F0400E00012E
:100F1000DE6F010EDF6F000EE16F230EE06F000E3B
:100F2000E36F200EE26FE80EE46FFF0EE56F41EC19
:100F3000A9F0400E2B6E010E2C6EBFECABF0050E2F
:100F400091ECAAF0400E0D6E010E0E6EEEECA2F0CA
:100F5000400E0001DE6F010EDF6F000EE16F180E14
:100F6000E06F000EE36F180EE26FDC0EE46FFF0E11
:100F7000E56F41ECA9F0400E0001DE6F010EDF6F5E
:100F8000000EE16F230EE06F000EE36F200EE26FA4
:100F9000E40EE46FFF0EE56F41ECA9F0400E2B6EFE
:100FA000010E2C6EBFECABF0050E91ECAAF0400EDA
:100FB0000D6E010E0E6EEEECA2F0400E0001DE6F23
:100FC000010EDF6F000EE16F060EE06F000EE36FA3
:100FD000180EE26F730EE46FFF0EE56F41ECA9F09F
:100FE000400E2B6E010E2C6EBFECABF0000E01011B
:100FF000556F58EF88F001015551D8A402EF88F0E1
:1010000004EF88F00CEF88F00F0E91ECAAF0010EBF
:101010000101556F58EF88F05505D8A412EF88F0FC
:1010200014EF88F058EF88F0400E0D6E010E0E6E32
:10103000EEECA2F0400E0001DE6F010EDF6F000E3D
:10104000E16F060EE06F000EE36F180EE26F630EA5
:10105000E46FFF0EE56F41ECA9F0400E0001DE6F7A
:10106000010EDF6F000EE16F060EE06F000EE36F02
:10107000230EE26FCA0EE46FFF0EE56F41ECA9F09C
:10108000400E2B6E010E2C6EBFECABF08388838A72
:10109000838C838E59ECACF0010E91ECAAF083980E
:1010A000839A839C839E57ECACF0010E91ECAAF0DE
:1010B0007EEC97F0546EAE0EF66EF60EF76E000EE6
:1010C000F86E0800F5505418D8A469EF88F06BEF5B
:1010D00088F0FBEF87F0050E91ECAAF0000E5A6E37
:1010E000400E0D6E010E0E6EEEECA2F0400E3F6E45
:1010F000010E406E000E426E190E416E000E446EDF
:101100001C0E436E000E466E260E456E000E486E97
:101110000A0E476EE0EC9AF0400E0001DE6F010E01
:10112000DF6F000EE16F100EE06F000EE36F0A0E2E
:10113000E26FC00EE46FFF0EE56F41ECA9F0400EC8
:101140000001DE6F010EDF6F000EE16F0A0EE06F2F
:10115000000EE36F180EE26F9C0EE46FFF0EE56F5A
:1011600041ECA9F09BEF83F0AF0EF66EF60EF76E32
:10117000000EF86E0800F5506019D8B4C2EF88F080
:10118000C4EF88F03DEF8BF06051D8B4CAEF88F01F
:10119000CCEF88F03DEF8BF0030E5A18D8A4D3EFB4
:1011A00088F0D5EF88F03DEF8BF0000E5A6E000E00
:1011B00000018A6F000E896F000E886F400E0D6E61
:1011C000010E0E6EEEECA2F0400E0001DE6F010E7D
:1011D000DF6F000EE16F0A0EE06F000EE36F180E76
:1011E000E26F8F0EE46FFF0EE56F41ECA9F0400E49
:1011F0002B6E010E2C6EBFECABF00A0E91ECAAF038
:10120000400E0D6E010E0E6EEEECA2F0400E0001CF
:10121000DE6F010EDF6F000EE16F180EE06F000E43
:10122000E36F180EE26FDC0EE46FFF0EE56F41EC2A
:10123000A9F0400E2B6E010E2C6EBFECABF0050E2C
:1012400091ECAAF0400E0D6E010E0E6EEEECA2F0C7
:10125000400E0001DE6F010EDF6F000EE16F180E11
:10126000E06F000EE36F180EE26FDC0EE46FFF0E0E
:10127000E56F41ECA9F0400E0001DE6F010EDF6F5B
:10128000000EE16F230EE06F000EE36F200EE26FA1
:10129000F80EE46FFF0EE56F41ECA9F0400E2B6EE7
:1012A000010E2C6EBFECABF0050E91ECAAF0400ED7
:1012B0000D6E010E0E6EEEECA2F0400E0001DE6F20
:1012C000010EDF6F000EE16F180EE06F000EE36F8E
:1012D000180EE26FDC0EE46FFF0EE56F41ECA9F033
:1012E000400E0001DE6F010EDF6F000EE16F230E76
:1012F000E06F000EE36F200EE26FF40EE46FFF0E5E
:10130000E56F41ECA9F0400E2B6E010E2C6EBFEC88
:10131000ABF0050E91ECAAF0400E0D6E010E0E6EB4
:10132000EEECA2F0400E0001DE6F010EDF6F000E4A
:10133000E16F180EE06F000EE36F180EE26FDC0E27
:10134000E46FFF0EE56F41ECA9F0400E0001DE6F87
:10135000010EDF6F000EE16F230EE06F000EE36FF2
:10136000200EE26FF00EE46FFF0EE56F41ECA9F086
:10137000400E2B6E010E2C6EBFECABF0050E91EC07
:10138000AAF0400E0D6E010E0E6EEEECA2F0400EB5
:101390000001DE6F010EDF6F000EE16F180EE06FCF
:1013A000000EE36F180EE26FDC0EE46FFF0EE56FC8
:1013B00041ECA9F0400E0001DE6F010EDF6F000E60
:1013C000E16F230EE06F000EE36F200EE26FEC0E74
:1013D000E46FFF0EE56F41ECA9F0400E2B6E010E9D
:1013E0002C6EBFECABF0050E91ECAAF0400E0D6E2A
:1013F000010E0E6EEEECA2F0400E0001DE6F010E4B
:10140000DF6F000EE16F180EE06F000EE36F180E35
:10141000E26FDC0EE46FFF0EE56F41ECA9F0400EC9
:101420000001DE6F010EDF6F000EE16F230EE06F33
:10143000000EE36F200EE26FE80EE46FFF0EE56F23
:1014400041ECA9F0400E2B6E010E2C6EBFECABF000
:10145000050E91ECAAF0400E0D6E010E0E6EEEEC34
:10146000A2F0400E0001DE6F010EDF6F000EE16F93
:10147000180EE06F000EE36F180EE26FDC0EE46FE3
:10148000FF0EE56F41ECA9F0400E0001DE6F010E8A
:10149000DF6F000EE16F230EE06F000EE36F200E92
:1014A000E26FE40EE46FFF0EE56F41ECA9F0400E31
:1014B0002B6E010E2C6EBFECABF0050E91ECAAF07A
:1014C000400E0D6E010E0E6EEEECA2F0400E00010D
:1014D000DE6F010EDF6F000EE16F060EE06F000E93
:1014E000E36F180EE26F730EE46FFF0EE56F41ECD1
:1014F000A9F0400E2B6E010E2C6EBFECABF0000E6F
:101500000101556FE1EF8AF001015551D8A48BEF2D
:101510008AF08DEF8AF095EF8AF00F0E91ECAAF029
:10152000010E0101556FE1EF8AF05505D8A49BEF3C
:101530008AF09DEF8AF0E1EF8AF0400E0D6E010E09
:101540000E6EEEECA2F0400E0001DE6F010EDF6FBA
:10155000000EE16F060EE06F000EE36F180EE26FF3
:10156000630EE46FFF0EE56F41ECA9F0400E000141
:10157000DE6F010EDF6F000EE16F060EE06F000EF2
:10158000E36F230EE26FCA0EE46FFF0EE56F41ECCE
:10159000A9F0400E2B6E010E2C6EBFECABF08388D1
:1015A000838A838C838E59ECACF0010E91ECAAF007
:1015B0008398839A839C839E57ECACF0010E91EC48
:1015C000AAF07EEC97F0546EAF0EF66EF60EF76E44
:1015D000000EF86E0800F5505418D8A4F2EF8AF007
:1015E000F4EF8AF084EF8AF0050E91ECAAF0000E79
:1015F0005A6E400E0D6E010E0E6EEEECA2F0400E15
:101600003F6E010E406E000E426E190E416E000ECE
:10161000446E1C0E436E000E466E260E456E000E86
:10162000486E0A0E476EE0EC9AF0400E0001DE6F45
:10163000010EDF6F000EE16F100EE06F000EE36F22
:101640000A0EE26FC00EE46FFF0EE56F41ECA9F0E9
:10165000400E0001DE6F010EDF6F000EE16F0A0E1B
:10166000E06F000EE36F180EE26F9C0EE46FFF0E4A
:10167000E56F41ECA9F09BEF83F012004F0E4E2472
:101680000001BA6F000E4F20BB6F4EC00EF04FC06E
:101690000FF050C010F051C011F09DEC9EF020EE04
:1016A00058F04E50D9264F50DA22DF500001B96F62
:1016B000BAC00EF0BBC00FF020EE64F04E50D92639
:1016C0004F50DA22DF50106E26ECAAF00001B26F04
:1016D000BAC00EF0BBC00FF020EE65F04E50D92618
:1016E0004F50DA22DF50106E26ECAAF00001B36FE3
:1016F000BAC00EF0BBC00FF020EE66F04E50D926F7
:101700004F50DA22DF50106E26ECAAF00001B46FC1
:1017100020EE08F0BA51D926BB51DA22DF50800AF8
:101720007F0FD8A096EF8BF098EF8BF09BEF8CF0AB
:1017300020EE02F0BA51D926BB51DA22DECF05F0F5
:10174000DDCF06F0B2C007F0B951B3250008086E2E
:1017500020EE0EF0BA51D926BB51DA22DF50096EC5
:10176000CBECA6F0000120EE02F0BA51D926BB5115
:10177000DA2205C0DEFF06C0DDFF20EE04F0BA511C
:10178000D926BB51DA22DECF05F0DDCF06F0B2C09C
:1017900007F0B951B3250008086E20EE0EF0BA51DB
:1017A000D926BB51DA22DF50096E95ECA6F0000174
:1017B00020EE04F0BA51D926BB51DA2205C0DEFF73
:1017C00006C0DDFF20EE02F0BA51D926BB51DA2265
:1017D000DECFB5F0DDCFB6F020EE04F0BA51D92659
:1017E000BB51DA22DECFB7F0DDCFB8F0B5C0AEF036
:1017F000B6C0AFF0B7C0B0F0B8C0B1F064EF8CF0D5
:1018000020EE08F0BA51D926BB51DA22DF50526ED1
:101810005250AE27000E52BEFF0EAF23B951B02773
:10182000000EB9BFFF0EB1237DEF8CF0B951B55F4B
:10183000000EB9BFFF0EB65BB54BB62BAE4BAF2B50
:1018400020EE08F0BA51D926BB51DA22DF50526E91
:101850005250B027000E52BEFF0EB1237DEF8CF028
:1018600020EE08F0BA51D926BB51DA22DF50526E71
:101870005250B55F000E52BEFF0EB65BB54BB62B95
:10188000AE4BAF2BB951B75F000EB9BFFF0EB85BBF
:10189000B74BB82BB04BB12B7DEF8CF0B951AE27C5
:1018A000000EB9BFFF0EAF2320EE08F0BA51D926C3
:1018B000BB51DA22DF50526E5250B75F000E52BE5B
:1018C000FF0EB85B48EF8CF020EE0EF0BA51D9262F
:1018D000BB51DA22DF50000AD8B400EF8CF0010AC5
:1018E000D8B416EF8CF0030AD8B430EF8CF0010AAC
:1018F000D8B44EEF8CF07DEF8CF04EC00DF04FC0A1
:101900000EF0B5C00FF0B6C010F0B7C011F0B8C0FF
:1019100012F0AEC013F0AFC014F0B0C015F0B1C0FB
:1019200016F07FECA3F00009D8A499EF8CF09BEFA0
:101930008CF09FEF8CF00001B45118EF8DF0000196
:1019400020EE06F0BA51D926BB51DA22000EDF6E26
:1019500020EE07F0BA51D926BB51DA22000EDF6E15
:10196000BAC005F0BBC006F020EE60F04E50D9269C
:101970004F50DA22DF50076E07EC9FF00001AC6F8A
:10198000BAC005F0BBC006F020EE61F04E50D9267B
:101990004F50DA22DF50076E07EC9FF00001AD6F69
:1019A0004EC03FF04FC040F0ACC041F0000E426E60
:1019B000DCEC93F04EC03FF04FC040F0ADC041F0C2
:1019C000010E426EDCEC93F0BAC005F0BBC006F02D
:1019D000010E076E07EC9FF00009D8A4F2EF8CF01F
:1019E000F4EF8CF0D0EF8CF0000120EE07F0BA514C
:1019F000D926BB51DA22DE50800A536EB951800AD3
:101A0000535CD8A006EF8DF008EF8DF0B0EF8CF0AE
:101A100020EE0CF0BA51D926BB51DA2210EE7BF041
:101A20004E50E1264F50E222DFCFE7FF9BEF8CF0D4
:101A300012000CC005F00DC006F0000E076ED3ECCE
:101A4000AAF00AC0D9FF0BC0DAFFDF6E20EE01F06A
:101A50000A50D9260B50DA220CC005F00DC006F052
:101A6000010E076ED3ECAAF0DF6E20EE02F00A50F2
:101A7000D9260B50DA220CC005F00DC006F0020E7C
:101A8000076ED3ECAAF0DF6E20EE03F00A50D926E1
:101A90000B50DA220CC005F00DC006F0030E076EE5
:101AA000D3ECAAF0DF6E20EE04F00A50D9260B50DA
:101AB000DA220CC005F00DC006F0040E076ED3EC60
:101AC000AAF0DF6E20EE05F00A50D9260B50DA227C
:101AD0000CC005F00DC006F0050E076ED3ECAAF0A1
:101AE000DF6E20EE06F00A50D9260B50DA220CC029
:101AF00005F00DC006F0060E076ED3ECAAF0DF6EFF
:101B000020EE07F00A50D9260B50DA220CC005F05F
:101B10000DC006F0070E076ED3ECAAF0DF6E20EEC4
:101B200008F00A50D9260B50DA220CC005F00DC07F
:101B300006F0080E076ED3ECAAF0DF6E20EE09F077
:101B40000A50D9260B50DA220CC005F00DC006F061
:101B5000090E076ED3ECAAF0DF6E20EE0AF00A50F1
:101B6000D9260B50DA220CC005F00DC006F00A0E83
:101B7000076ED3ECAAF0DF6E20EE0BF00A50D926E8
:101B80000B50DA220CC005F00DC006F00B0E076EEC
:101B9000D3ECAAF0DF6E20EE0CF00A50D9260B50E1
:101BA000DA220CC005F00DC006F00C0E076ED3EC67
:101BB000AAF0DF6E20EE0DF00A50D9260B50DA2283
:101BC0000CC005F00DC006F00D0E076ED3ECAAF0A8
:101BD000DF6E20EE0EF00A50D9260B50DA220CC030
:101BE00005F00DC006F00E0E076ED3ECAAF0DF6E06
:101BF00020EE0FF00A50D9260B50DA220CC005F067
:101C00000DC006F00F0E076ED3ECAAF0DF6E20EECB
:101C100010F00A50D9260B50DA220CC005F00DC086
:101C200006F0100E076ED3ECAAF0DF6E0CC005F0C4
:101C30000DC006F0110E076E52ECA8F020EE11F068
:101C40000A50D9260B50DA2205C0DEFF06C0DDFFA0
:101C50000CC005F00DC006F0130E076E52ECA8F094
:101C600020EE13F00A50D9260B50DA2205C0DEFF11
:101C700006C0DDFF0CC005F00DC006F0150E076EA6
:101C800052ECA8F020EE15F00A50D9260B50DA22BB
:101C900005C0DEFF06C0DDFF120069EF8FF02A509D
:101CA000D8A455EF8EF057EF8EF063EF8EF027C07B
:101CB0001EF028C01FF05E0E206EFF0E216EAEECEF
:101CC0009DF07CEF8FF027C01EF028C01FF0590E4A
:101CD000206EFF0E216EAEEC9DF07CEF8FF02A504F
:101CE000D8A475EF8EF077EF8EF09EEF8EF027C0C0
:101CF0001EF028C01FF0520E206EFF0E216EAEECBB
:101D00009DF027C0D9FF28C0DAFFDECF2DF0DDCF50
:101D10002EF0120E2D26000E2E222DC0F6FF2EC004
:101D2000F7FF000EF86E20EE19F02750D926285044
:101D3000DA220800F5CFDFFF7CEF8FF027C01EF01E
:101D400028C01FF04B0E206EFF0E216EAEEC9DF0F2
:101D500027C0D9FF28C0DAFFDECF2DF0DDCF2EF06F
:101D6000130E2D26000E2E222DC0F6FF2EC0F7FFDB
:101D7000000EF86E20EE19F02750D9262850DA22EE
:101D80000800F5CFDFFF7CEF8FF027C018F028C0E8
:101D900019F000ECABF027C018F028C019F0810E44
:101DA0001A6E1EECABF027C012F028C013F02AC048
:101DB00014F021ECA9F027C018F028C019F02DEC80
:101DC000ABF07CEF8FF027C0D9FF28C0DAFFDECF61
:101DD0002DF0DDCF2EF0120E2D26000E2E222DC05E
:101DE000F6FF2EC0F7FF000EF86E20EE19F0275018
:101DF000D9262850DA220800F5CFDFFF27C018F0D7
:101E000028C019F000ECABF020EE03F02B50D926DF
:101E10002C50DA22DF5000017C6F080E7C03F35057
:101E20007C6F20EE19F02750D9262850DA22DF5097
:101E30007C2727C018F028C019F07C390F0B100937
:101E40001A6E1EECABF027C018F028C019F0000184
:101E50007C510F0B1A6E1EECABF027C018F028C097
:101E600019F020EE04F02B50D9262C50DA22DF5046
:101E7000B0091A6E1EECABF020EE02F02B50D92602
:101E80002C50DA22DF5000017B6F2BC0D9FF2CC011
:101E9000DAFFDECF70F0DDCF71F027C018F028C078
:101EA00019F07B51080DF3CF1AF070C01BF071C010
:101EB0001CF00FECABF02A062A50D8A462EF8FF08A
:101EC00064EF8FF03CEF8FF0DBEF8EF0000E7DEFD4
:101ED0008FF029500B0AD8B44FEF8EF0060AD8B411
:101EE0006FEF8EF0030AD8B4C5EF8EF0010AD8B4B4
:101EF000E3EF8EF066EF8FF0010E120020EE75F02A
:101F00003450D9263550DA22DF50D8B48AEF8FF01A
:101F10008CEF8FF09CEF90F03A503B10D8B493EFD9
:101F20008FF095EF8FF09CEF90F03B5009E1020E9F
:101F30003A5CD8A09EEF8FF0A0EF8FF0C0EF8FF04B
:101F4000020E3C18D8A4A7EF8FF0A9EF8FF0B1EFE5
:101F50008FF03A50365E3B50375A364A372AC0EF38
:101F60008FF0030E3C18D8A4B8EF8FF0BAEF8FF0C3
:101F7000C0EF8FF03A50385E3B50395A384A392A10
:101F8000010E3C163C50D8A4C8EF8FF0CAEF8FF07A
:101F900018EF90F020EE3EF03450D9263550DA227A
:101FA000DE50385CDE503958D8B0D9EF8FF0DBEF17
:101FB0008FF0DDEF8FF09CEF90F020EE40F034508A
:101FC000D9263550DA22DE50385CDE503958D8A098
:101FD000ECEF8FF0EEEF8FF0F0EF8FF09CEF90F0E2
:101FE000360E056E000E066E3A0E076E000E086E77
:101FF00020EE3AF03450D9263550DA22DECF09F0FF
:10200000DDCF0AF020EE3CF03450D9263550DA22EC
:10201000DECF0BF0DDCF0CF028EC9DF00009D8A44A
:1020200014EF90F016EF90F066EF90F09CEF90F0C8
:1020300020EE3AF03450D9263550DA22DE50365CA4
:10204000DE503758D8B027EF90F029EF90F02BEF03
:1020500090F09CEF90F020EE3CF03450D9263550B3
:10206000DA22DE50365CDE503758D8A03AEF90F0D6
:102070003CEF90F03EEF90F09CEF90F0380E056E44
:10208000000E066E3A0E076E000E086E20EE3EF051
:102090003450D9263550DA22DECF09F0DDCF0AF0F0
:1020A00020EE40F03450D9263550DA22DECF0BF046
:1020B000DDCF0CF028EC9DF00009D8A462EF90F081
:1020C00064EF90F066EF90F09CEF90F034C027F052
:1020D00035C028F036C029F037C02AF038C02BF0C0
:1020E00039C02CF03AC02DF03BC02EF03CC02FF090
:1020F00020EE26F03450D9263550DA22DECF3DF0DE
:10210000DDCF3EF0060E3D26000E3E223DC0F6FF1E
:102110003EC0F7FF000EF86E02D89CEF90F005006D
:10212000FA6E0900F550FD6E0900F550FE6E0900CB
:10213000F550FF6EFA501200120005C0D9FF06C01C
:10214000DAFFDECF0EF0DDCF0FF020EE2AF00550E3
:10215000D9260650DA22DF50076E0750106E116A3A
:10216000D89010361136D89010361136D8901036D7
:10217000113620EE2EF00550D9260650DA2210C076
:10218000DEFF11C0DDFF100E0E24076E000E0F20C3
:10219000086E07C0F6FF08C0F7FF000EF86E0800D3
:1021A000F550106E116AD89010361136D89010364E
:1021B0001136D8901036113620EE2CF00550D92665
:1021C0000650DA2210C0DEFF11C0DDFF20EE2BF03A
:1021D0000550D9260650DA22DF50076E0750106EE0
:1021E000116AD89010361136D89010361136D89022
:1021F0001036113620EE30F00550D9260650DA227E
:1022000010C0DEFF11C0DDFF20EE2AF00550D926F8
:102210000650DA22DF50076E0750106E116A20EE6A
:102220002BF00550D9260650DA22DF50076E0750F2
:102230001024086E000E1120096E110E0E240A6E75
:10224000000E0F200B6E0AC0F6FF0BC0F7FF000E4A
:10225000F86E0800F5500C6E0D6A08500C5C0950C1
:102260000D58D8B036EF91F038EF91F055EF91F06E
:10227000110E0E24076E000E0F20086E07C0F6FF29
:1022800008C0F7FF000EF86E0800F5CF09F020EE49
:102290002BF00550D9260650DA22DF500A6E0A507C
:1022A000095C106E116AD8A01106D890103611364C
:1022B000D89010361136D8901036113620EE30F006
:1022C0000550D9260650DA2210EE32F00550E126EC
:1022D0000650E222DECFE6FFDDCFE5FF20EE32F052
:1022E0000550D9260650DA2210EE34F00550E126CA
:1022F0000650E222DECFE6FFDDCFE5FF20EE34F030
:102300000550D9260650DA221050DE261150DD2263
:10231000140E0E24076E000E0F20086E07C0F6FF85
:1023200008C0F7FF000EF86E20EE36F00550D926F3
:102330000650DA220900F5CFDEFF0800F5CFDDFFF9
:10234000160E0E24076E000E0F20086E07C0F6FF53
:1023500008C0F7FF000EF86E20EE38F00550D926C1
:102360000650DA220900F5CFDEFF0800F5CFDDFFC9
:10237000120020EE4AF00A50D9260B50DA22DECFA6
:1023800014F0DDCF15F0170E1426000E15220D04E3
:10239000D8B0CDEF91F0CFEF91F046EF92F00D5025
:1023A00009E1610E0C5CD8A0D8EF91F0DAEF91F062
:1023B000E6EF91F020EE71F00A50D9260B50DA22A8
:1023C000DE501426DD501522FBEF91F00D5009E18F
:1023D000410E0C5CD8A0EFEF91F0F1EF91F0FBEF24
:1023E00091F020EE6FF00A50D9260B50DA22DE5021
:1023F0001426DD501522010E14240E6E000E152039
:102400000F6E0EC0F6FF0FC0F7FF000EF86E08004B
:10241000F5500009D8A40FEF92F011EF92F013EFEE
:1024200092F0CBEF92F014C0F6FF15C0F7FF000E4C
:10243000F86E0800F5500E6E0F6A0C500E1807E18A
:102440000D500F18D8A427EF92F029EF92F031EF3A
:1024500092F0020E14240A6E000E15200B6ECFEFC0
:1024600092F0010E14240E6E000E15200F6E0EC099
:10247000F6FF0FC0F7FF000EF86E0800F550010DD3
:10248000F3501426F4501522FBEF91F020EE73F078
:102490000A50D9260B50DA22DE501426DD501522C0
:1024A00014C010F015C011F010C005F011C006F0F6
:1024B000000E076E52ECA8F00550142606501522A7
:1024C00010C005F011C006F0020E076E52ECA8F025
:1024D00005C012F006C013F0040E1026000E1122E3
:1024E0000C50125C0D501358D8A079EF92F07BEF8E
:1024F00092F054EF92F014C0F6FF15C0F7FF000EF3
:10250000F86E0800F550126E136A1250136E126ABC
:10251000010E14240E6E000E15200F6E0EC0F6FF75
:102520000FC0F7FF000EF86E0800F550121212509F
:102530001310D8A49EEF92F0A0EF92F0A2EF92F0C9
:10254000CBEF92F00C50121807E10D501318D8A4DD
:10255000ACEF92F0AEEF92F0B6EF92F0030E1424CF
:102560000A6E000E15200B6ECFEF92F0020E1424AF
:102570000E6E000E15200F6E0EC0F6FF0FC0F7FF97
:10258000000EF86E0800F550010DF3501426F450BB
:1025900015227BEF92F0000E0A6E000E0B6E1200F9
:1025A00020EE4AF00550D9260650DA22DE50DE1021
:1025B000D8A4DDEF92F0DFEF92F0E1EF92F0DBEFE5
:1025C00093F020EE6BF00550D9260650DA2210EE7B
:1025D00077F00550E1260650E222DFCFE7FF20EE3C
:1025E0006CF00550D9260650DA2210EE78F005502E
:1025F000E1260650E222DFCFE7FF20EE76F005501D
:10260000D9260650DA22DF50D8A409EF93F00BEF59
:1026100093F00DEF93F0DBEF93F020EE76F00550A2
:10262000D9260650DA22DE04D8A419EF93F01BEF66
:1026300093F06BEF93F020EE6DF00550D926065025
:10264000DA2210EE77F00550E1260650E222E6503D
:10265000800A096EDE50800A095CD8B032EF93F030
:1026600034EF93F042EF93F020EE6DF00550D92651
:102670000650DA2210EE77F00550E1260650E222ED
:10268000DFCFE7FF20EE78F00550D9260650DA229A
:1026900010EE6EF00550E1260650E222E650800A68
:1026A000096EDE50800A095CD8B059EF93F05BEFF9
:1026B00093F0DBEF93F020EE6EF00550D926065034
:1026C000DA2210EE78F00550E1260650E222DFCF44
:1026D000E7FFDBEF93F020EE6AF00550D9260650B5
:1026E000DA22DF50076E086A07BE080620EE68F09F
:1026F0000550D9260650DA22DF50096E0A6A09BE53
:102700000A060750092608500A2220EE77F00550E5
:10271000D9260650DA22DF500B6E800E0BBE7F0EDC
:102720000C6E09500B5C0A50800A0C58D8B09BEF15
:1027300093F09DEF93F0B4EF93F020EE77F0055017
:10274000D9260650DA2210EE6AF00550E12606502E
:10275000E222E750076E10EE68F00550E1260650C1
:10276000E222E7500724DF6E20EE78F00550D926EC
:102770000650DA2210EE6AF00550E1260650E222F9
:10278000E650800A096EDE50800A095CD8B0CBEFB3
:1027900093F0CDEF93F0DBEF93F020EE6AF005506D
:1027A000D9260650DA2210EE78F00550E1260650C0
:1027B000E222DFCFE7FF12004F0E3F244C6E000EE7
:1027C00040204D6E41C049F020EE06F04C50D92615
:1027D0004D50DA22DF504B6E20EE07F04C50D926D8
:1027E0004D50DA22DF50486E20EE08F04C50D926CA
:1027F0004D50DA22DF504A6E4B504A5E4AC043F0D9
:102800004A50495CD8B007EF94F009EF94F00BEF11
:1028100094F049C043F020EE02F04C50D9264D50C0
:10282000DA22DECF44F0DDCF45F020EE04F04C504C
:10283000D9264D50DA22DECF46F0DDCF47F044C036
:1028400005F045C006F04BC007F048C008F020EE88
:102850000EF04C50D9264D50DA22DF50096ECBECE9
:10286000A6F005C044F006C045F046C005F047C0DC
:1028700006F04BC007F048C008F020EE0EF04C50B8
:10288000D9264D50DA22DF50096E95ECA6F005C02E
:1028900046F006C047F04250D8B451EF94F053EFE1
:1028A00094F07CEF94F020EE0CF04C50D9264D5073
:1028B000DA2210EE7BF03F50E1264050E222DFCFDB
:1028C000E7FF3FC034F040C035F044C036F045C0AB
:1028D00037F046C038F047C039F043C03AF03B6AA1
:1028E00020EE0EF04C50D9264D50DA22DF503C6ECF
:1028F0007EEC8FF0B1EF94F020EE0BF04C50D92627
:102900004D50DA22DF50D8A488EF94F08AEF94F08B
:10291000B1EF94F020EE0DF04C50D9264D50DA2254
:1029200010EE7BF03F50E1264050E222DFCFE7FF80
:102930003FC034F040C035F044C036F045C037F0F9
:1029400046C038F047C039F043C03AF03B6A20EE49
:102950000EF04C50D9264D50DA22DF503C6E7EEC02
:102960008FF04A50495CD8B0B8EF94F0BAEF94F0C9
:10297000BCEF94F0C3EF94F04A50495E000E4B6EEA
:10298000482AF4EF93F049504B2620EE06F04C50C5
:10299000D9264D50DA224BC0DFFF20EE07F04C5015
:1029A000D9264D50DA2248C0DFFF120017C00DF0C3
:1029B00018C00EF020EE42F01750D9261850DA2237
:1029C000DECF0FF0DDCF10F020EE46F01750D92605
:1029D0001850DA22DECF11F0DDCF12F020EE44F0F5
:1029E0001750D9261850DA22DECF13F0DDCF14F0BD
:1029F00020EE48F01750D9261850DA22DECF15F015
:102A0000DDCF16F07FECA3F00009D8A40AEF95F013
:102A10000CEF95F016EF95F020EE75F01750D926D3
:102A20001850DA22000EDF6EBAEF95F020EE75F046
:102A30001750D9261850DA22010EDF6E20EE42F030
:102A40001750D9261850DA2210EE3AF01750E12626
:102A50001850E222DE50E65CDE50E658D8B033EF84
:102A600095F035EF95F045EF95F020EE42F01750D8
:102A7000D9261850DA2210EE3AF01750E1261850F5
:102A8000E222DECFE6FFDDCFE5FF20EE3CF017507F
:102A9000D9261850DA2210EE44F01750E1261850CB
:102AA000E222DE50E65CDE50E658D8B05AEF95F0F0
:102AB0005CEF95F06CEF95F020EE44F01750D926BE
:102AC0001850DA2210EE3CF01750E1261850E2229E
:102AD000DECFE6FFDDCFE5FF20EE46F01750D9262A
:102AE0001850DA2210EE3EF01750E1261850E2227C
:102AF000DE50E65CDE50E658D8B081EF95F083EF0B
:102B000095F093EF95F020EE46F01750D926185027
:102B1000DA2210EE3EF01750E1261850E222DECF06
:102B2000E6FFDDCFE5FF20EE40F01750D926185024
:102B3000DA2210EE48F01750E1261850E222DE505B
:102B4000E65CDE50E658D8B0A8EF95F0AAEF95F015
:102B5000BAEF95F020EE48F01750D9261850DA2237
:102B600010EE40F01750E1261850E222DECFE6FFCB
:102B7000DDCFE5FF12000FC019F0070E1916010E88
:102B8000166E1928146EC7EF95F0D8901636142ECD
:102B9000C5EF95F0000E1A6E000E1B6E20EE7BF056
:102BA0000B50D9260C50DA22020EDF60DAEF95F0D6
:102BB000DCEF95F0DEEF95F016C01AF020EE7BF01A
:102BC0000B50D9260C50DA22DE04D8B4EAEF95F087
:102BD000ECEF95F0EEEF95F016C01BF00FC017F07C
:102BE00010C018F0F80E1716FF0E181617C005F0D3
:102BF00018C006F00BC0D9FF0CC0DAFFDECF14F00E
:102C0000DDCF15F0100E1426000E152214C0F6FFAD
:102C100015C0F7FF000EF86E0800F550076E086A41
:102C20007EECAAF005C017F006C018F020EE28F0E0
:102C30000B50D9260C50DA22DECF1CF0DDCF1DF070
:102C400017501C2618501D220D501C260E501D22F8
:102C50001350D8A42EEF96F030EF96F04CEF96F08C
:102C60001CC0D9FF1DC0DAFF1A50DF121CC0D9FFEB
:102C70001DC0DAFF1B50DF1A1C4A1D2A1106D8A0FE
:102C8000120611501210D8A448EF96F04AEF96F0B1
:102C900030EF96F09FEF96F01CC0D9FF1DC0DAFF11
:102CA0001A50DF121CC0D9FF1DC0DAFF1B50DF1AFB
:102CB000192A070E19161106D8A012061950D8A401
:102CC00064EF96F066EF96F092EF96F020EE2CF01F
:102CD0000B50D9260C50DA22DE501C26DD501D2266
:102CE00020EE7BF00B50D9260C50DA22020EDF606A
:102CF0007CEF96F07EEF96F080EF96F0010E1A6E64
:102D000020EE7BF00B50D9260C50DA22DE04D8B42A
:102D10008CEF96F08EEF96F096EF96F0010E1B6E0C
:102D200096EF96F0D8901A36D8901B3611501210A4
:102D3000D8A49DEF96F09FEF96F04CEF96F012001E
:102D40000750D8B4A6EF96F0A8EF96F0B1EF96F042
:102D50000A0E0718D8A4AFEF96F0B1EF96F0B5EFD2
:102D600096F0056806687DEF97F020EE1DF005509F
:102D7000D9260650DA22DF50D8A4C1EF96F0C3EF6F
:102D800096F03FEF97F0FB0E0764C9EF96F0CBEF9C
:102D900096F0D7EF96F020EE1DF00550D92606509C
:102DA000DA22050EDF6E010E07162CEF97F0F70EF4
:102DB0000764DDEF96F0DFEF96F0EBEF96F020EE94
:102DC0001DF00550D9260650DA22040EDF6E030EE0
:102DD00007162CEF97F0EF0E0764F1EF96F0F3EF84
:102DE00096F0FFEF96F020EE1DF00550D926065024
:102DF000DA22030EDF6E070E07162CEF97F0DF0EB8
:102E0000076405EF97F007EF97F013EF97F020EEC8
:102E10001DF00550D9260650DA22020EDF6E0F0E85
:102E200007162CEF97F0BF0E076419EF97F01BEF12
:102E300097F027EF97F020EE1DF00550D9260650A9
:102E4000DA22010EDF6E1F0E07162CEF97F007C077
:102E500005F0066A7DEF97F00750086E096A20EECC
:102E600017F00550D9260650DA2208C0DEFF09C047
:102E7000DDFFFF0E066EFE0E056E7DEF97F020EE75
:102E80001DF00550D9260650DA22DF06060E086E20
:102E900020EE17F00550D9260650DA22082854EF04
:102EA00097F0D890DE36DD36E82E51EF97F03F0EE2
:102EB000071620EE17F00550D9260650DA220750E3
:102EC000DE12000EDD1220EE1DF00550D926065050
:102ED000DA22DF50D8B46FEF97F071EF97F073EF0D
:102EE00097F039EF97F020EE17F00550D9260650ED
:102EF000DA22DECF05F0DDCF06F01200000E056EFF
:102F00000550D8A486EF97F088EF97F08CEF97F0F4
:102F100083908382848E83860504D8A492EF97F0F1
:102F200094EF97F098EF97F083928380848E838656
:102F3000020E0518D8A49FEF97F0A1EF97F0A5EF28
:102F400097F0849E838283808386030E0518D8A41D
:102F5000ACEF97F0AEEF97F0B2EF97F08382848EEC
:102F600083808396D8ECABF08FB4B9EF97F0BBEFCA
:102F700097F0D1EF97F08FA4C0EF97F0C2EF97F0E2
:102F8000BBEF97F00550040D6B0EF324F66EF60EB2
:102F9000F420F76EF86A000EF8220800F55042EFB0
:102FA00098F08FBED6EF97F0D8EF97F0F2EF97F04A
:102FB0008FAEDDEF97F0DFEF97F0D8EF97F0055089
:102FC000040D010EF326000EF4226B0EF324F66EB0
:102FD000F60EF420F76EF86A000EF8220800F5509D
:102FE00042EF98F08FB6F7EF97F0F9EF97F013EF05
:102FF00098F08FA6FEEF97F000EF98F0F9EF97F0BA
:103000000550040D020EF326000EF4226B0EF3247D
:10301000F66EF60EF420F76EF86A000EF82208003D
:10302000F55042EF98F08FBC18EF98F01AEF98F037
:1030300034EF98F08FAC1FEF98F021EF98F01AEF73
:1030400098F00550040D030EF326000EF4226B0ECB
:10305000F324F66EF60EF420F76EF86A000EF822EE
:103060000800F55042EF98F0052A030E05643BEF87
:1030700098F03DEF98F080EF97F083808382848E04
:103080008386000E12001EC00CF01FC00DF0280E2B
:103090000E6E000E0F6E000E106E000E116E20EE02
:1030A0000EF01E50D9261F50DA2202D862EF98F097
:1030B0000500FA6EDE50FD6EDE50FE6EDE50FF6ED5
:1030C000FA5012001EC00CF01FC00DF0140E0E6E50
:1030D000000E0F6E000E106E000E116E20EE08F046
:1030E0001E50D9261F50DA2202D881EF98F0050031
:1030F000FA6EDE50FD6EDE50FE6EDE50FF6EFA5050
:1031000012001EC01AF01FC01BF04B0E1C6E010EE9
:103110001D6E4BECABF01EC01AF01FC01BF0290E49
:103120001C6E1EC0D9FF1FC0DAFFDECF20F0DDCF3E
:1031300021F0040E2026000E212220C0F6FF21C01F
:10314000F7FF000EF86E0800F5CF1DF04BECABF06A
:103150001EC01AF01FC01BF04B0E1C6E000E1D6E21
:103160004BECABF01EC01AF01FC01BF0290E1C6EFA
:103170001EC0D9FF1FC0DAFFDECF20F0DDCF21F067
:10318000040E2026000E212220C0F6FF21C0F7FFEA
:10319000000EF86E0800F5CF1DF04BECABF01EC032
:1031A0001AF01FC01BF04B0E1C6E010E1D6E4BEC77
:1031B000ABF01EC01AF01FC01BF0290E1C6E1EC003
:1031C000D9FF1FC0DAFFDECF20F0DDCF21F0050EE2
:1031D0002026000E212220C0F6FF21C0F7FF000E9E
:1031E000F86E0800F5CF1DF04BECABF0120071EF5C
:1031F00099F0C8C009F0C9C00AF020EE4CF0C851DF
:10320000D926C951DA2202D810EF99F00500FA6EDA
:10321000DE50FD6EDE50FE6EDE50FF6EFA50120084
:1032200009500001CC270A50CD238BEF99F0C8C07C
:1032300009F0C9C00AF020EE4CF0C851D926C95196
:10324000DA2202D82EEF99F00500FA6EDE50FD6EFC
:10325000DE50FE6EDE50FF6EFA5012000950000183
:10326000CA5F0A50CB5B8BEF99F0C8C009F0C9C0A8
:103270000AF020EE4CF0C851D926C951DA2202D802
:103280004CEF99F00500FA6EDE50FD6EDE50FE6EDA
:10329000DE50FF6EFA50120009500001CC5F0A5058
:1032A000CD5B8BEF99F0C8C009F0C9C00AF020EEE1
:1032B0004CF0C851D926C951DA2202D86AEF99F0E8
:1032C0000500FA6EDE50FD6EDE50FE6EDE50FF6EC3
:1032D000FA50120009500001CA270A50CB238BEF85
:1032E00099F0000120EE5DF0C851D926C951DA22CB
:1032F000DF50000AD8B4F9EF98F0010AD8B417EFFC
:1033000099F0030AD8B435EF99F0010AD8B453EF15
:1033100099F08BEF99F0C8C0BCF0C9C0BDF0CAC02D
:10332000BEF0CBC0BFF0CCC0C0F0CDC0C1F0CEC0AD
:10333000C2F0CFC0C3F00DECA4F0BCC0C8F0BDC05B
:10334000C9F01200090E0E18D8A4A9EF99F0ABEF3E
:1033500099F0B8EF99F00CC005F00DC006F0000E22
:10336000076EFF0E086E77ECA8F0010E40EF9AF0A2
:103370000A0E0E18D8A4BFEF99F0C1EF99F0D3EF61
:1033800099F00CC01EF00DC01FF043EC98F00CC07B
:103390001EF00DC01FF0800E206EFE0E216EAEECF2
:1033A0009DF0B5EF99F00D0E0E18D8A4DAEF99F054
:1033B000DCEF99F032EF9AF00F50D8A4E2EF99F0D9
:1033C000E4EF99F00DEF9AF00CC0D9FF0DC0DAFFD1
:1033D000DECF0BF0DDCF0CF0120E0B26000E0C2210
:1033E0000BC0F6FF0CC0F7FF000EF86E0800F5CF1B
:1033F0007AF00CC01EF00DC01FF0390E206EFF0ECB
:10340000216EAEEC9DF020EE19F00C50D9260D5037
:10341000DA22200EDF6E32EF9AF00CC01EF00DC0E3
:103420001FF0300E206EFF0E216EAEEC9DF00CC032
:10343000D9FF0DC0DAFFDECF0BF0DDCF0CF0130E9D
:103440000B26000E0C220BC0F6FF0CC0F7FF000E7F
:10345000F86E20EE19F00C50D9260D50DA22080033
:10346000F5CFDFFF0CC027F00DC028F00EC029F00B
:103470000FC02AF010C02BF011C02CF04DEC8EF0D4
:103480001200000EF66E000EF76E000EF86E20EEC3
:103490004AF02750D9262850DA220900F5CFDEFF5E
:1034A0000800F5CFDDFF20EE23F02750D926285065
:1034B000DA222CC0DEFF2DC0DEFF2EC0DEFF20EEA4
:1034C00028F02750D9262850DA2229C0DEFF2AC04A
:1034D000DDFF20EE2AF02750D9262850DA222BC013
:1034E000DFFF20EE2BF02750D9262850DA22000EDD
:1034F000DF6E20EE5AF02750D9262850DA22000E2F
:10350000DF6E20EE7AF02750D9262850DA22000EFE
:10351000DF6E20EE76F02750D9262850DA22000EF2
:10352000DF6E20EE7BF02750D9262850DA22010EDC
:10353000DF6E20EE7CF02750D9262850DA22010ECB
:10354000DF6E20EE26F02750D9262850DA222FC031
:10355000DEFF30C0DDFF27C012F028C013F020EEE0
:1035600026F02750D9262850DA22DECFF6FFDDCF0D
:10357000F7FF000EF86E02D8CBEF9AF00500FA6E56
:103580000900F550FD6E0900F550FE6E0900F5507A
:10359000FF6EFA50120027C023F028C024F0FFEC81
:1035A000A1F027C005F028C006F0B2ECABF020EE89
:1035B0005DF02750D9262850DA22000EDF6E120067
:1035C00041C049F042C04AF03FC00DF040C00EF08B
:1035D00041C00FF042C010F043C011F044C012F0DF
:1035E00045504124136E46504220146E47504324E8
:1035F000156E48504420166E7FECA3F00009D8A445
:1036000004EF9BF006EF9BF008EF9BF07DEF9BF043
:103610003FC034F040C035F041C036F042C037F012
:1036200043C038F044C039F045C03AF046C03BF0E2
:10363000000E3C6E7EEC8FF0485009E1020E475CB4
:10364000D8A025EF9BF027EF9BF07DEF9BF0020EBB
:10365000475E000E485A434A442A47504810D8B49F
:1036600034EF9BF036EF9BF069EF9BF03FC034F0F6
:1036700040C035F041C036F042C037F043C038F0AA
:1036800044C039F047C03AF048C03BF0010E3C6EF0
:103690007EEC8FF045504126465042224106D8A08C
:1036A00042063FC034F040C035F041C036F042C061
:1036B00037F043C038F044C039F047C03AF048C052
:1036C0003BF0010E3C6E7EEC8FF047504326485095
:1036D00044223FC034F040C035F049C036F04AC003
:1036E00037F043C038F044C039F045C03AF046C026
:1036F0003BF0000E3C6E7EEC8FF01200D0C005F067
:10370000D1C006F012ECACF0000E0001D96F000E33
:10371000D86FD0C005F0D1C006F0D6C0F6FFD7C034
:10372000F7FF000EF86E0800F5CF07F020EE02F06C
:10373000D051D926D151DA2202D8A9EF9BF0050049
:10374000FA6EDE50FD6EDE50FE6EDE50FF6EFA50F9
:10375000120005C0DAF006C0DBF00001DA2906E14C
:10376000DB29D8A4B6EF9BF0B8EF9BF0BAEF9BF043
:1037700017EF9CF0D64BD72BFE0EDA1908E1DB29A8
:10378000D8B4C5EF9BF0C7EF9BF089EF9BF0D0C09A
:10379000C8F0D1C0C9F0D2C0CAF0D3C0CBF0D4C0F9
:1037A000CCF0D5C0CDF0DAC0CEF0DBC0CFF0F7EC76
:1037B00098F0C8C0DCF0C9C0DDF0F7EF9BF0DC5139
:1037C000D227DD51D32311EF9CF0DC51D427DD51FA
:1037D000D52311EF9CF0DC51D25FDD51D35B11EFAB
:1037E0009CF0DC51D45FDD51D55B11EF9CF0000102
:1037F00020EE5DF0D051D926D151DA22DF50000AF7
:10380000D8B4DFEF9BF0010AD8B4E5EF9BF0030AD0
:10381000D8B4EBEF9BF0010AD8B4F1EF9BF011EFB5
:103820009CF0DC51D827DD51D92389EF9BF0D8C01B
:10383000D0F0D9C0D1F0120020EE3AF01D50D926B8
:103840001E50DA22000EDE6E000EDD6E20EE36F027
:103850001D50D9261E50DA2210EE3CF01D50E126F4
:103860001E50E222DECFE6FFDDCFE5FF20EE3EF088
:103870001D50D9261E50DA22000EDE6E000EDD6EBF
:1038800020EE34F01D50D9261E50DA2210EE38F00A
:103890001D50E1261E50E222DE50E65CDE50E65866
:1038A000D8A055EF9CF057EF9CF079EF9CF020EEFC
:1038B00034F01D50D9261E50DA22DECF1FF0DDCFA6
:1038C00020F020EE38F01D50D9261E50DA22DECF2F
:1038D00021F0DDCF22F01F50215E2050225A20EE31
:1038E0003EF01D50D9261E50DA2221C0DEFF22C034
:1038F000DDFF20EE32F01D50D9261E50DA22DECF39
:103900001FF0DDCF20F020EE38F01D50D9261E50DC
:10391000DA22DECF21F0DDCF22F01F50215E2050D1
:10392000225A20EE40F01D50D9261E50DA2221C026
:10393000DEFF22C0DDFF1DC017F01EC018F0D6EC60
:1039400094F0120020EE3AF01D50D9261E50DA22D3
:10395000000EDE6E000EDD6E20EE34F01D50D92616
:103960001E50DA2210EE36F01D50E1261E50E222E3
:10397000DE50E65CDE50E658D8A0C1EF9CF0C3EF05
:103980009CF0E5EF9CF020EE34F01D50D9261E503F
:10399000DA22DECF1FF0DDCF20F020EE36F01D5012
:1039A000D9261E50DA22DECF21F0DDCF22F01F50C3
:1039B000215E2050225A20EE3AF01D50D9261E508A
:1039C000DA2221C0DEFF22C0DDFF20EE32F01D50E2
:1039D000D9261E50DA22DECF1FF0DDCF20F020EEF8
:1039E00036F01D50D9261E50DA22DECF21F0DDCF71
:1039F00022F01F50215E2050225A20EE3CF01D5034
:103A0000D9261E50DA2221C0DEFF22C0DDFF20EEC3
:103A10003EF01D50D9261E50DA22000EDE6E000E3A
:103A2000DD6E20EE38F01D50D9261E50DA2210EE41
:103A300040F01D50E1261E50E222DECFE6FFDDCF32
:103A4000E5FF1DC017F01EC018F0D6EC94F0120070
:103A500005C0D9FF06C0DAFFDECF0FF0DDCF10F0D2
:103A60000FC00DF010C00EF007C0D9FF08C0DAFF7C
:103A7000DE500D26DD500E220F500D5C10500E58FA
:103A8000D8B045EF9DF047EF9DF05FEF9DF00B50F4
:103A90000F5C0C501058D8B050EF9DF052EF9DF0D5
:103AA0005BEF9DF00BC00DF00CC00EF00D06D8A022
:103AB0000E065FEF9DF009C00FF00AC010F00B502A
:103AC0000F5C0C501058D8A068EF9DF06AEF9DF085
:103AD0006DEF9DF0000EADEF9DF00D50095C0E50A6
:103AE0000A58D8A076EF9DF078EF9DF07AEF9DF020
:103AF0006AEF9DF009500F5C0A501058D8B083EF60
:103B00009DF085EF9DF089EF9DF009C00FF00AC090
:103B100010F00D500B5C0E500C58D8B092EF9DF089
:103B200094EF9DF098EF9DF00BC00DF00CC00EF0DF
:103B300005C0D9FF06C0DAFF0FC0DEFF10C0DDFFF1
:103B40000F500D5E10500E5A07C0D9FF08C0DAFFA3
:103B50000DC0DEFF0EC0DDFF010E120020C024F0FC
:103B600021C025F024C0F6FF25C0F7FF000EF86E37
:103B70000800F5CF23F0244A252A16EF9EF024C032
:103B8000F6FF25C0F7FF000EF86E0800F5CF26F00F
:103B90001EC012F01FC013F023C014F026C015F091
:103BA000000E166E000E176E3CECABF0244A252A70
:103BB000B2EF9DF024C0F6FF25C0F7FF000EF86EAF
:103BC0000800F5CF26F01EC018F01FC019F0010E36
:103BD0001A6E260E1B6E000E1C6E0FECABF0D6EFAD
:103BE0009DF01EC012F01FC013F023C014F0000E91
:103BF000156E000E166E000E176E3CECABF0B2EFB9
:103C00009DF024C0F6FF25C0F7FF000EF86E0800F7
:103C1000F5CF26F01EC01AF01FC01BF0290E1C6E37
:103C200026C01DF04BECABF0D6EF9DF02350150AEB
:103C3000D8B4BFEF9DF0030AD8B4BFEF9DF0010ADE
:103C4000D8B4DAEF9DF00F0AD8B4F1EF9DF0010A75
:103C5000D8B4F1EF9DF0E70AD8B401EF9EF031EF50
:103C60009EF01200000EF66E000EF76E000EF86E5B
:103C700005C0D9FF06C0DAFF0900F5CFDEFF080056
:103C8000F5CFDDFF20EE05F00550D9260650DA22EB
:103C9000B60EDE6E580EDE6E010EDE6E20EE08F001
:103CA0000550D9260650DA22B60EDE6E580EDE6EAC
:103CB000010EDE6E20EE0BF00550D9260650DA22FA
:103CC000B60EDE6E580EDE6E010EDE6E20EE0EF0CB
:103CD0000550D9260650DA22B60EDE6E580EDE6E7C
:103CE000010EDE6E20EE1AF00550D9260650DA22BB
:103CF000000EDF6E20EE1DF00550D9260650DA22A8
:103D0000000EDF6E20EE11F00550D9260650DA22A3
:103D1000DE6ADE6ADE6ADD6A20EE1BF00550D92617
:103D20000650DA22FF0EDF6E20EE1FF00550D92676
:103D30000650DA22FF0EDF6E12004F0E0E24136EB5
:103D4000000E0F20146E13C0D9FF14C0DAFF10C08C
:103D5000DEFF11C0DDFF20EE0AF01350D92614500B
:103D6000DA22000EDF6E13C005F014C006F020EE5C
:103D700062F00E50D9260F50DA22DF50076E07ECA2
:103D80009FF0126E20EE08F01350D9261450DA225C
:103D900012C0DFFF13C005F014C006F020EE63F080
:103DA0000E50D9260F50DA22DF50076E07EC9FF035
:103DB000126E20EE09F01350D9261450DA2212C0E8
:103DC000DFFF20EE7BF00E50D9260F50DA2210EEE6
:103DD0000CF01350E1261450E222DFCFE7FF20EE73
:103DE0000DF01350D9261450DA2210EE0CF01350B7
:103DF000E1261450E222E750D8B401EF9FF004EF1F
:103E00009FF0010E05EF9FF0000EDF6E120020EE16
:103E10000AF00550D9260650DA22DF500D6E05C093
:103E2000D9FF06C0DAFFDECFF6FFDDCFF7FF000EC9
:103E3000F86E0800F5CF0BF00D28086E22EF9FF00A
:103E4000D8900B32082E20EF9FF00DC00CF00750D9
:103E50000C26070E0C642FEF9FF031EF9FF057EF09
:103E60009FF0080E0A6E0D500A5E05C0D9FF06C00D
:103E7000DAFFDE2A000EDD220AC008F005C0D9FFF5
:103E800006C0DAFFDECFF6FFDDCFF7FF000EF86EDB
:103E90000800F5CF09F0082A50EF9FF0D8900936B6
:103EA000082E4EEF9FF009500B12080E0C5E07C053
:103EB00008F0010E096E082A60EF9FF0D8900936CD
:103EC000082E5EEF9FF009040B1620EE0AF0055055
:103ED000D9260650DA220CC0DFFF0B501200000179
:103EE0008A05D8A476EF9FF078EF9FF090EF9FF0CF
:103EF000400EDE6F010EDF6F000EE16F170EE06FF8
:103F0000000EE36F240EE26FFC0EE46FFF0EE56F10
:103F100041ECA9F0400E2B6E010E2C6EBFECABF005
:103F200000018905D8A497EF9FF099EF9FF0B1EFBA
:103F30009FF0400EDE6F010EDF6F000EE16F1F0E6F
:103F4000E06F000EE36F240EE26FFC0EE46FFF0ED5
:103F5000E56F41ECA9F0400E2B6E010E2C6EBFEC0C
:103F6000ABF000018805D8A4B8EF9FF0BAEF9FF03E
:103F7000D2EF9FF0400EDE6F010EDF6F000EE16F9B
:103F8000270EE06F000EE36F240EE26FFC0EE46F6D
:103F9000FF0EE56F41ECA9F0400E2B6E010E2C6E6A
:103FA000BFECABF0120018EFA0F00FC080F00CC017
:103FB00018F00DC019F0000E1A6E69ECABF00CC0D1
:103FC0001DF00DC01EF080C01FF078ECABF033EF99
:103FD000A0F010C072F011C073F00FC07FF00CC0E1
:103FE00018F00DC019F0010E1A6E69ECABF00CC0A0
:103FF00018F00DC019F07FC01AF072C01BF073C02A
:104000001CF087ECABF033EFA0F00CC012F00DC049
:1040100013F00EC014F00FC015F010C016F011C050
:1040200017F096ECABF034EFA0F0000E34EFA0F0F8
:104030000E50140AD8B405EFA0F0010AD8B4D5EF99
:104040009FF0030AD8B4D5EF9FF0010AD8B4E9EF86
:104050009FF00F0AD8B405EFA0F0010AD8B405EF1D
:10406000A0F015EFA0F0010E120061ECA9F0400ED7
:10407000316E010E326E420E336EFF0E346E8E0EB6
:10408000356E470E366E010E376E9C0E386E420E40
:10409000396E010E3A6EDDECA5F0400E1A6E010E7F
:1040A0001B6EC4ECAAF0400E1A6E010E1B6E000EC1
:1040B0001C6EB5ECAAF0400E146E010E156E000ECB
:1040C000166EE1ECA8F0400E0E6E010E0F6EB00EF3
:1040D000106EF60E116EC7ECA7F049ECACF09FEC39
:1040E000A9F0400E0D6E010E0E6EEEECA2F0400E29
:1040F0000001DE6F010EDF6F000EE16F0A0EE06F50
:10410000000EE36F180EE26FA90EE46FFF0EE56F6D
:1041100041ECA9F0400E2B6E010E2C6EBFECABF003
:104120000F0E91ECAAF080ECA9F012002DECACF08F
:104130000F01198B899A400E0D6E010E0E6EEEEC7A
:10414000A2F08EB8A6EFA0F0A8EFA0F0F1EFA0F0DB
:104150008EA8ADEFA0F0AFEFA0F0A8EFA0F0000E9A
:104160000101586F000E576F000E546F35ECA0F030
:10417000F28AF28EF28C01015051D8B4C2EFA0F055
:10418000C4EFA0F0D7EFA0F0000E506FE4ECABF05E
:10419000556E5550F3ECA0F05550D8B4D2EFA0F0C6
:1041A000D4EFA0F0D7EFA0F0010E0101546F010190
:1041B0005151D8B4DEEFA0F0E0EFA0F0EEEFA0F0A8
:1041C000000E516F5451D8B4E8EFA0F0EAEFA0F020
:1041D000EEEFA0F000EC80F06FEC9FF00300BBEF7F
:1041E000A0F02BEF00F0546E5450D8B4FAEFA0F0CA
:1041F000FCEFA0F04DEFA1F000018B51D8A403EF2C
:10420000A1F005EFA1F04DEFA1F0400E0D6E010EF3
:104210000E6EEEECA2F0400E3F6E010E406E000EF0
:10422000426E190E416E000E446E1C0E436E000E5F
:10423000466E260E456E000E486E0A0E476EE0EC86
:104240009AF0400E0001DE6F010EDF6F000EE16F8D
:10425000100EE06F000EE36F0A0EE26FC00EE46F07
:10426000FF0EE56F41ECA9F0400E0001DE6F010E7C
:10427000DF6F000EE16F0A0EE06F000EE36F180EA5
:10428000E26F9C0EE46FFF0EE56F41ECA9F0400E6B
:104290002B6E010E2C6EBFECABF01200000E0C6EFC
:1042A000000E0B6E8FEFA1F00FB002D0839401D0FF
:1042B00083840B4A0C2AA6EFA1F00FB002D08490A1
:1042C00001D08480A6EFA1F00FB002D0849401D079
:1042D0008484A6EFA1F0D8ECABF00F060F28D8A489
:1042E00074EFA1F076EFA1F06BEFA1F0A6EFA1F0D3
:1042F000000E0F01116F000E196F889483946AEC01
:10430000AAF083846AECAAF08994849489928996AD
:1043100089908490A6EFA1F0000EA7EFA1F00E50B7
:10432000280AD8B478EFA1F0010AD8B46DEFA1F053
:10433000600AD8B464EFA1F0030AD8B45DEFA1F02D
:10434000010AD8B454EFA1F08CEFA1F0010E1200D5
:1043500020EE2AF02150D9262250DA22050EDF6EF7
:1043600021C0D9FF22C0DAFFDECF25F0DDCF26F055
:10437000100E2526000E262225C0F6FF26C0F7FFC8
:10438000000EF86E0800F5CF87F023C076F000012C
:10439000776B20EE28F02150D9262250DA22DECF8A
:1043A00078F0DDCF79F076C005F077C006F087C0F1
:1043B00007F0086A7EECAAF005C076F006C077F038
:1043C0000001D89076377737D89076377737D890FE
:1043D00076377737765178277751792321C01AF0CD
:1043E00022C01BF0000E1C6E24C01DF087C01EF002
:1043F00078C01FF079C020F0F4ECA9F0120020EE94
:1044000042F02350D9262450DA22000EDE6E000E30
:10441000DD6E20EE46F02350D9262450DA22000E1D
:10442000DE6E000EDD6E20EE44F02350D9262450BF
:10443000DA22FF0EDE6EFF0EDD6E20EE48F0235016
:10444000D9262450DA22FF0EDE6EFF0EDD6E23C069
:104450001DF024C01EF020EE26F02350D926245053
:10446000DA22DECF25F0DDCF26F0030E2526000E62
:10447000262225C0F6FF26C0F7FF000EF86E02D8F0
:104480004FEFA2F00500FA6E0900F550FD6E09002D
:10449000F550FE6E0900F550FF6EFA501200120042
:1044A00020EE38F02750D9262850DA22DECF32F01D
:1044B000DDCF33F02B50325E2C50335A20EE36F0E5
:1044C0002750D9262850DA22DECF30F0DDCF31F068
:1044D0002950305E2A50315A2F50D8A472EFA2F0E2
:1044E00074EFA2F07DEFA2F03206D8A033062D5073
:1044F000305E2E50315A8CEFA2F02F04D8A483EFF7
:10450000A2F085EFA2F08CEFA2F03006D8A0310621
:104510002D50325E2E50335A27C01EF028C01FF097
:1045200030C020F031C021F032C022F033C023F07F
:104530002DC024F02EC025F02FC026F097ECA7F058
:104540001200D1EFA2F00CC01DF00DC01EF00FC084
:104550001FF078ECABF0ECEFA2F00CC00CF00DC04B
:104560000DF00EC00EF00FC00FF010C010F011C013
:1045700011F020EE0BF00C50D9260D50DA2202D8A3
:10458000CCEFA2F00500FA6EDE50FD6EDE50FE6E3E
:10459000DE50FF6EFA501200EDEFA2F0000EEDEFCC
:1045A000A2F00E50140AD8B4ADEFA2F0010AD8B4AC
:1045B000A3EFA2F0030AD8B4A3EFA2F0010AD8B483
:1045C000ADEFA2F00F0AD8B4ADEFA2F0010AD8B453
:1045D000ADEFA2F0CEEFA2F0010E12000DC0D9FF98
:1045E0000EC0DAFFDECF0FF0DDCF10F0100E0F2679
:1045F000000E10220FC0F6FF10C0F7FF000EF86E7D
:104600000800F550116E126A11C005F012C006F0D4
:1046100020EE2AF00D50D9260E50DA22DF500F6E10
:104620000F50076E086A7EECAAF005C011F006C0B4
:1046300012F0D89011361236D89011361236D89022
:104640001136123620EE28F00D50D9260E50DA22FF
:10465000DECF05F0DDCF06F0000E086E000E076E0F
:1046600011C009F012C00AF0BDECA9F01200000E52
:104670000001866F20EE2AF02750D9262850DA2232
:10468000DF50856F20EE2BF02750D9262850DA22F4
:10469000DF50846F27C0D9FF28C0DAFFDECF29F0B2
:1046A000DDCF2AF0110E2926000E2A2229C0F6FF9E
:1046B0002AC0F7FF000EF86E0800F5CF83F027C080
:1046C00021F028C022F086C023F084C024F0A8EC9A
:1046D000A1F00001862B842B8551865DD8B073EF45
:1046E000A3F075EFA3F07EEFA3F08351845DD8A013
:1046F0007CEFA3F07EEFA3F05FEFA3F0120020EEBB
:104700003EF00D50D9260E50DA22DECF05F0DDCF77
:1047100006F020EE40F00D50D9260E50DA22DECF02
:1047200007F0DDCF08F011C009F012C00AF015C083
:104730000BF016C00CF0D8ECA4F00009D8A4A3EF3D
:10474000A3F0A5EFA3F0A8EFA3F0000EC6EFA3F02F
:1047500020EE3AF00D50D9260E50DA22DECF05F0C9
:10476000DDCF06F020EE3CF00D50D9260E50DA22B7
:10477000DECF07F0DDCF08F00FC009F010C00AF05F
:1047800013C00BF014C00CF0D8ECA4F01200F4EF3E
:10479000A3F010C074F011C075F0D9EFA3F074C08D
:1047A000D9FF75C0DAFFDF5007ECACF00001744BA5
:1047B000752B0F060F28D8A4E0EFA3F0E2EFA3F0CB
:1047C000CFEFA3F00BEFA4F084840BEFA4F00FB0B5
:1047D00002D0849001D084800BEFA4F084940BEF7E
:1047E000A4F084840BEFA4F00E50140AD8B4E4EFC4
:1047F000A3F0030AD8B4C9EFA3F00F0AD8B4EEEFC0
:10480000A3F0010AD8B4F1EFA3F0390AD8B4E7EF66
:10481000A3F00BEFA4F0010E1200000E0001C56F13
:10482000000EC46F20EE51F0BC51D926BD51DA22E2
:10483000BEC0DEFFBFC0DDFF20EE53F0BC51D92665
:10484000BD51DA22C0C0DEFFC1C0DDFFBCC00AF02E
:10485000BDC00BF0C2C00CF0C3C00DF0B9EC91F0BC
:104860000AC0C6F00BC0C7F00001C651C711D8B4CA
:104870003CEFA4F03EEFA4F04DEFA4F0BCC04EF02E
:10488000BDC04FF0C6C050F0C7C051F03EEC8BF039
:104890000001C46FC56BC4BFC507C4C0BCF0C5C0B0
:1048A000BDF0120012C005F013C006F09DEC90F0B0
:1048B00012C0D9FF13C0DAFFDECF14F0DDCF15F040
:1048C000140E1426000E152214C0F6FF15C0F7FFB3
:1048D000000EF86E20EE38F01250D9261350DA226E
:1048E0000900F5CFDEFF0800F5CFDDFF12C0D9FFCC
:1048F00013C0DAFFDECF14F0DDCF15F0160E14264C
:10490000000E152214C0F6FF15C0F7FF000EF86E5A
:1049100020EE36F01250D9261350DA220900F5CFD6
:10492000DEFF0800F5CFDDFF120012C005F013C056
:1049300006F09DEC90F012C0D9FF13C0DAFFDECF75
:1049400014F0DDCF15F0140E1426000E152214C03D
:10495000F6FF15C0F7FF000EF86E20EE38F012508B
:10496000D9261350DA220900F5CFDEFF0800F5CF73
:10497000DDFF12C0D9FF13C0DAFFDECF14F0DDCFA8
:1049800015F0160E1426000E152214C0F6FF15C0E1
:10499000F7FF000EF86E20EE36F01250D9261350B5
:1049A000DA220900F5CFDEFF0800F5CFDDFF1200A7
:1049B0000750095C08500A58D8B0E1EFA4F0E3EFC3
:1049C000A4F001EFA5F00B50055C0C500658D8B0D0
:1049D000ECEFA4F0EEEFA4F0F1EFA4F0010E19EF6C
:1049E000A5F009500B5C0A500C58D8B0FAEFA4F0AF
:1049F000FCEFA4F0FEEFA4F0EEEFA4F0000E19EF30
:104A0000A5F00B50055C0C500658D8B00AEFA5F085
:104A10000CEFA5F0FEEFA4F009500B5C0A500C5807
:104A2000D8B015EFA5F017EFA5F0FEEFA4F0EEEF6C
:104A3000A4F0120020EE32F01D50D9261E50DA22CA
:104A400010EE3AF01D50E1261E50E222DECFE6FFC6
:104A5000DDCFE5FF20EE34F01D50D9261E50DA22BE
:104A600010EE3CF01D50E1261E50E222DECFE6FFA4
:104A7000DDCFE5FF20EE3EF01D50D9261E50DA2294
:104A8000000EDE6E000EDD6E20EE38F01D50D926D1
:104A90001E50DA2210EE40F01D50E1261E50E22298
:104AA000DECFE6FFDDCFE5FF1DC017F01EC018F01A
:104AB000D6EC94F0120020EE3AF01D50D9261E508C
:104AC000DA22000EDE6E000EDD6E20EE36F01D5096
:104AD000D9261E50DA2210EE3CF01D50E1261E5061
:104AE000E222DECFE6FFDDCFE5FF20EE32F01D5003
:104AF000D9261E50DA2210EE3EF01D50E1261E503F
:104B0000E222DECFE6FFDDCFE5FF20EE34F01D50E0
:104B1000D9261E50DA2210EE40F01D50E1261E501C
:104B2000E222DECFE6FFDDCFE5FF1DC017F01EC09D
:104B300018F0D6EC94F012002BC030F02CC031F0FD
:104B400020EE36F02750D9262850DA22DECF32F078
:104B5000DDCF33F02950325E2A50335A2F50D8A47B
:104B6000B4EFA5F0B6EFA5F0C3EFA5F03206D8A0DC
:104B700033062D50325E2E50335A324A332A010EFC
:104B80002F6EC8EFA5F03206D8A03306000E2F6EA8
:104B900027C01EF028C01FF030C020F031C021F027
:104BA00032C022F033C023F02DC024F02EC025F0F7
:104BB0002FC026F097ECA7F0120031C016F032C0DB
:104BC00017F0440E186E330E196E010E1A6EA60EF3
:104BD0001B6E3F0E1C6E010E1D6E35C01EF036C0E2
:104BE0001FF037C020F038C021F039C022F03AC0A1
:104BF00023F01CECA6F03D0E056E000E066EFCECDC
:104C0000ABF005C03BF006C03CF031C027F032C02D
:104C100028F03BC029F03CC02AF03DC02BF0760EB6
:104C20002C6E2B0E2D6E010E2E6E33C02FF034C065
:104C300030F041EC9AF0120016C005F017C006F0F3
:104C400032EC9EF020EE05F01650D9261750DA22ED
:104C500018C0DEFF19C0DEFF1AC0DEFF20EE08F02C
:104C60001650D9261750DA221BC0DEFF1CC0DEFF0B
:104C70001DC0DEFF20EE0BF01650D9261750DA22A9
:104C80001EC0DEFF1FC0DEFF20C0DEFF20EE0EF0E4
:104C90001650D9261750DA2221C0DEFF22C0DEFFCF
:104CA00023C0DEFF16C014F017C015F001ECA9F008
:104CB000120029C030F02AC031F020EE38F0275021
:104CC000D9262850DA22DECF32F0DDCF33F02B5058
:104CD000325E2C50335A3206D8A033062F2A020EE9
:104CE0002F18D8A476EFA6F078EFA6F080EFA6F004
:104CF0002D50325E2E50335A324A332A000E2F6E18
:104D000027C01EF028C01FF032C020F033C021F0B1
:104D100030C022F031C023F02DC024F02EC025F089
:104D20002FC026F097ECA7F01200B7EFA6F00850BE
:104D30000526000E08BEFF0E0622C6EFA6F007509D
:104D40000526000E07BEFF0E0622C6EFA6F008508D
:104D5000055E000E08BEFF0E065AC6EFA6F007500D
:104D6000055E000E07BEFF0E065AC6EFA6F00950FC
:104D7000000AD8B497EFA6F0010AD8B49FEFA6F0C6
:104D8000030AD8B4A7EFA6F0AFEFA6F005C005F070
:104D900006C006F01200EDEFA6F007500526000E43
:104DA00007BEFF0E0622FCEFA6F00850055E000EBF
:104DB00008BEFF0E065AFCEFA6F00750055E000E77
:104DC00007BEFF0E065AFCEFA6F008500526000E9F
:104DD00008BEFF0E0622FCEFA6F00950000AD8B468
:104DE000CDEFA6F0010AD8B4D5EFA6F0030AD8B4E7
:104DF000DDEFA6F0E5EFA6F005C005F006C006F071
:104E0000120020EE36F02750D9262850DA22DECFC5
:104E100030F0DDCF31F02950305E2A50315A2FB0BA
:104E200014EFA7F016EFA7F01CEFA7F02D50305E9F
:104E30002E50315A1FEFA7F03006D8A0310627C0F8
:104E40001EF028C01FF030C020F031C021F02BC070
:104E500022F02CC023F02DC024F02EC025F02FC04E
:104E600026F097ECA7F0120020EE38F02750D92654
:104E70002850DA22DECF30F0DDCF31F02B50305E1B
:104E80002C50315A2FA047EFA7F049EFA7F04FEF72
:104E9000A7F02D50305E2E50315A52EFA7F0300659
:104EA000D8A0310627C01EF028C01FF029C020F06E
:104EB0002AC021F030C022F031C023F02DC024F0F0
:104EC0002EC025F02FC026F097ECA7F01200A60EFA
:104ED000F66E580EF76E010EF86E00EEE6F010EE6C
:104EE00008F00900F5CFEEFFE550E150FAE101EEE0
:104EF000D9F011EEE0F0EE6AE550E150FCE1E2504D
:104F0000FAE100EE60F04C0EEE6AE806FDE15A6A46
:104F1000596A586A576A566A01EEBDF01C0EEE6A6D
:104F2000E806FDE15B905B92000196EFA0F020EEB9
:104F300030F01E50D9261F50DA22DE50225EDD509E
:104F4000235A1EC00BF01FC00CF020C00DF021C072
:104F50000EF022C00FF023C010F024C011F025C0C5
:104F600012F026C013F020EE23F01E50D9261F5059
:104F7000DA2202D8C6EFA7F00500FA6EDE50FD6E09
:104F8000DE50FE6EDE50FF6EFA501200120020EE70
:104F90004AF00E50D9260F50DA221050DE1809E1DF
:104FA0001150DE18D8B4D7EFA7F0D9EFA7F0F5EF7E
:104FB000A7F020EE4AF00E50D9260F50DA2210C08A
:104FC000DEFF11C0DDFF5E0E0E240A6E000E0F2004
:104FD0000B6E10C00CF011C00DF019EC8DF00EC06E
:104FE00005F00FC006F0D0EC92F012000101605104
:104FF000D8A4FDEFA7F0FFEFA7F003EFA8F0574B01
:10500000582B0DEFA8F0000E586F000E576F57EC9D
:10501000ACF08398839A839C839EF40E0101575DC4
:10502000010E5859D8A017EFA8F019EFA8F023EFF8
:10503000A8F059ECACF08388838A838C838E6AEC69
:10504000AAF057ECACF01200066E000E086E055088
:10505000D8B42DEFA8F02FEFA8F050EFA8F0010E74
:10506000076E36EFA8F0D8900536072A05AE3BEF5D
:10507000A8F03DEFA8F033EFA8F0D890083605501F
:10508000065CD8A046EFA8F048EFA8F04BEFA8F0D8
:105090000550065E0880D8900532072E3DEFA8F037
:1050A000085012000750010DF3500526F450062257
:1050B00005C0F6FF06C0F7FF000EF86E0800F550B9
:1050C000086E096A054A062A0850096E086A05C072
:1050D000F6FF06C0F7FF000EF86E0800F550082630
