:0400000063EF00F0BA
:06000800288265EF00F004
:100018002880D8CF13F0E8CF14F0E0CF15F0FACF4E
:1000280016F0FBCF17F0E9CF18F0EACF19F0E1CFBF
:100038001AF0E2CF1BF0D9CF1CF0DACF1DF0F3CFC6
:100048001EF0F4CF1FF0F6CF20F0F7CF21F0F8CF55
:1000580022F0F5CF23F028C024F029C025F02AC0CB
:1000680026F02BC027F027C02BF026C02AF025C089
:1000780029F024C028F023C0F5FF22C0F8FF21C0D2
:10008800F7FF20C0F6FF1FC0F4FF1EC0F3FF1DC01E
:10009800DAFF1CC0D9FF1BC0E2FF1AC0E1FF19C07C
:1000A800EAFF18C0E9FF17C0FBFF16C0FAFF15C02A
:1000B800E0FF14C0E8FF13C0D8FF28901000AFEF8E
:1000C80000F0FACF01F0FBCF02F0E9CF03F0EACF5E
:1000D80004F0E1CF05F0E2CF06F0D9CF07F0DACF90
:1000E80008F0F3CF09F0F4CF0AF0F6CF0BF0F7CF12
:1000F8000CF0F8CF0DF0F5CF0EF028C00FF029C0A6
:1001080010F02AC011F02BC012F012C02BF011C051
:100118002AF010C029F00FC028F00EC0F5FF0DC05E
:10012800F8FF0CC0F7FF0BC0F6FF0AC0F4FF09C0C8
:10013800F3FF08C0DAFF07C0D9FF06C0E2FF05C019
:10014800E1FF04C0EAFF03C0E9FF02C0FBFF01C0F2
:10015800FAFF28921100289028920001B4EF00F0CD
:02016800FFD7BF
:020000040020DA
:10000000FF0FFF0FFF0FFF0FFF0FFF0FFF0FFF0F80
:020000040030CA
:0C0000008CFFFFF7ACCFFFFFFFFFFFFFFE
:00000001FF
