:0400000067EF00F0B6
:06000800458238EF08F00C
:100018004580D8CF60F0E8CF61F0E0CF62F0FACF4A
:1000280063F0FBCF64F0E9CF65F0EACF66F0E1CF8B
:1000380067F0E2CF68F0D9CF69F0DACF6AF0F3CF92
:100048006BF0F4CF6CF0F6CF6DF0F7CF6EF0F8CF21
:100058006FF0F5CF70F045C071F046C072F047C040
:1000680073F048C074F00EEC0BF0E9EC0AF074C0C1
:1000780048F073C047F072C046F071C045F070C0D8
:10008800F5FF6FC0F8FF6EC0F7FF6DC0F6FF6CC0DC
:10009800F4FF6BC0F3FF6AC0DAFF69C0D9FF68C01C
:1000A800E2FF67C0E1FF66C0EAFF65C0E9FF64C020
:1000B800FBFF63C0FAFF62C0E0FF61C0E8FF60C0F9
:0A00C800D8FF4590100051EF0BF037
:100F000000556E65206D656E6163652061206574B6
:100F10006520646574656374652070656E64616ED8
:100F2000742000494E495449414C49534154494F5A
:100F30004E20434F4D504C45544520524E353200C3
:100F40000A5354415254204150504C494341544952
:100F50004F4E0A0D000A446574656374657572200E
:100F60006F66660A00535441525420524E35320087
:100F7000534E2C414243444546007365636F6E6493
:100F8000657300534B2C30340053412C3000434DDB
:070F90004400414F4B00003B
:100F98001E6E0A0E1E601AD01E50D8B417D0010E4D
:100FA8000001756F0F0E766F96EC0AF01E50300F29
:100FB800A8EC0BF07A0E0001756F0F0E766F96ECA9
:100FC8000AF08388838A838C838E1200090E1E643C
:100FD80031D0010E0001756F0F0E766F96EC0AF096
:100FE8001EC075F00001766B000E786F0A0E776FE1
:100FF80044EC09F000017551300FA8EC0BF01EC04D
:1010080075F00001766B000E786F0A0E776FC9ECE9
:1010180009F000017551300FA8EC0BF07A0E0001B1
:10102800756F0F0E766F96EC0AF08388838A838C2F
:10103800838E12001E50D8A41200010E0001756F95
:101048000F0E766F96EC0AF01E50300FA8EC0BF0DE
:101058007A0E0001756F0F0E766F96EC0AF0839882
:10106800839A839C839E1200FACF07F0FBCF08F087
:10107800E9CF09F0EACF0AF0E1CF0BF0E2CF0CF0AC
:10108800D9CF0DF0DACF0EF0F3CF0FF0F4CF10F088
:10109800F6CF11F0F7CF12F0F8CF13F0F5CF14F028
:1010A80045C015F046C016F047C017F048C018F004
:1010B8000E01CAAB0AD0CA9BF40E026E240E016E52
:1010C80077EC0BF0010E00019A6F0E01CEA10AD049
:1010D800CE914E0E026E200E016E64EC0BF0010EE6
:1010E8000001996F18C048F017C047F016C046F0C5
:1010F80015C045F014C0F5FF13C0F8FF12C0F7FF84
:1011080011C0F6FF10C0F4FF0FC0F3FF0EC0DAFFE6
:101118000DC0D9FF0CC0E2FF0BC0E1FF0AC0EAFF17
:1011280009C0E9FF08C0FBFF07C0FAFF459211009C
:101138000B0E0E01F86F100E8D6F0F0121910E012D
:101148009F879E85000E0001756F900E766FD00EFA
:10115800776F030E786F7DC01FF07EC020F07FC0D0
:1011680021F080C022F0020ED8901F36203621369A
:101178002236E82EF9D71FC079F020C07AF021C0B6
:101188007BF022C07CF087EC09F0FF0E000175258A
:10119800246EFF0E7621256EFF0E7721266EFF0E38
:1011A8007821276E24C09BFE0E019C6B25C09CFEF7
:1011B8009E999E9D9E8B9D9D9D899D8FC59D99CE37
:1011C80023F099CE23F0C58FBD9F000E0001976FC5
:1011D800000E966F000E956F1200090E0E01FD6F3E
:1011E800170EB56F0F01219F9F869E84000E000188
:1011F800756F900E766FD00E776F030E786F7DC087
:101208001FF07EC020F07FC021F080C022F0020EC7
:10121800D8901F36203621362236E82EF9D71FC03F
:1012280079F020C07AF021C07BF022C07CF087ECF6
:1012380009F0FF0E00017525246EFF0E7621256E3C
:10124800FF0E7721266EFF0E7821276E24C09BFFA4
:101258009C6A25C09CFF9E989E9C9E8A9D9C9D880A
:101268009D8E0E01C59999CF23F099CF23F0C58B98
:10127800BD9B000E406E000E3F6E000E3E6E1200CB
:10128800000E1B6E000178AF06D0776D781FD8B0BE
:10129800782B010E1B6E76AF06D0756D761FD8B011
:1012A800762B010E1B1A000E1D6E000E1C6E775158
:1012B8007811D8B41CD0010E1A6E04D0D8907737A4
:1012C80078371A2A78AFFAD7D8901C361D36775156
:1012D800755D78517659D8A005D07751755F7851EA
:1012E800765B1C80D890783377331A2EEDD71B5055
:1012F800D8B404D01C6C1D1ED8B01D2A1CC075F0B3
:101308001DC076F01200000E1A6E000E1B6E000E45
:101318001C6E000E1D6E000179517A117B117C1133
:10132800D8B42AD0010E1E6E06D0D89079377A37F5
:101338007B377C371E2A7CAFF8D7D8901A361B36F5
:101348001C361D367951755D7A5176597B5177591E
:101358007C517859D8A009D07951755F7A51765B5C
:101368007B51775B7C51785B1A80D8907C337B33D8
:101378007A3379331E2EE1D71AC075F01BC076F088
:101388001CC077F01DC078F01200000E1B6E000123
:1013980076AF06D0756D761FD8B0762B010E1B6E12
:1013A80078AF04D0776D781FD8B0782B7751781143
:1013B800D8B418D0010E1A6E04D0D8907737783781
:1013C8001A2A78AFFAD77751755D78517659D8A02F
:1013D80004D07751755F7851765BD890783377333E
:1013E8001A2EF1D71B50D8B404D0756D761FD8B01B
:1013F800762B75C075F076C076F012008EA88FAA8D
:1014080009D000019851D8A405D08EA8FED70001B4
:10141800982B12008EB88FBA09D000019805D8A46D
:1014280005D08FAAFED70001982B12008EB81200A3
:101438008FBA1200010E0001986512008FBA02D00F
:101448008EA8FCD7000E0001986F0F0119818990B2
:10145800550E0001756F0F0E766F96EC0AF01200AC
:1014680065EC0AF0F28AF28EF28C400E0001756F7C
:101478000F0E766F96EC0AF000019A51D8B417D087
:10148800000E9A6FA2EC0BF0296E29508AEC0BF033
:10149800286E2950300FA8EC0BF0530E0001756F21
:1014A8000F0E766F96EC0AF02850CCEC07F000018E
:1014B8009951D8B404D0000E996F02EC0AF00300D9
:1014C800DBD7B4EC0BF0B2EC0BF0B0EC0BF0AEECFD
:1014D8000BF094EC0BF098EC0BF09CEC0BF0F40E8A
:1014E8001B6E240E1A6EC2EC0AF04E0E1B6E200EF6
:1014F8001A6E31EC0BF0800E00017D6F250E7E6FA9
:10150800000E7F6F000E806FF1EC08F0800E000176
:101518007D6F250E7E6F000E7F6F000E806F9CEC36
:1015280008F0120016D075C0F6FF76C0F7FF000E5F
:10153800F86E0E0EF76403D00800F55005D0F6CF0C
:10154800E9FFF7CFEAFFEF50A8EC0BF00001754B6D
:10155800762B75C0F6FF76C0F7FF000EF86E0E0EFC
:10156800F76403D00800F55005D0F6CFE9FFF7CFB0
:10157800EAFFEF500009D8B41200D5D7D590D5921C
:10158800D594D596D588D6501F0B4009D66ED688E7
:10159800D650F00B0809D66E0E01CA9BC28BBA8BC7
:1015A8001AC01CF01BC01DF01C1E1D1E1C4A1D2A43
:1015B800FF0E1C241E6EFF0E1D201F6E1F50D46EC2
:1015C8001EC0D3FFD58ED78F12000E01CDAF1200EB
:1015D800140E000197611BD09651010D810EF32462
:1015E800D96E000EF420DA6E99CEDFFF972B962B7A
:1015F800130E966502D0000E966F100E9719D8A498
:1016080012000E019EA3FDD7130E9A6F120099CEF9
:1016180019F012000E01CDAB1200140E40601AD062
:101628003F50010D2A0EF324D96E000EF420DA6E15
:1016380099CFDFFF402A3F2A130E3F6402D0000EE5
:101648003F6E100E4018D8A412009EA2FED7130EAB
:101658009A6E120099CF19F01200300ECF12CF9265
:10166800D250F00B0109D26E0E01CE91C681BE8117
:101678001AC01CF01BC01DF01C1E1D1E1C4A1D2A72
:10168800FF0E1C241E6EFF0E1D201F6E1F50CE6EF7
:101698001EC0CDFFCF80D78F120000EE81F01A0E4A
:1016A800EE6AE806FDE100EE2AF01B0EEE6AE80697
:1016B800FDE145904592000EF86E000134EF0AF006
:1016C80001C003F002C004F0031E041E034A042AEA
:1016D800FF0E0324056EFF0E0420066E0650CE6E24
:1016E80005C0CDFF120001C003F002C004F0031EC4
:1016F800041E034A042AFF0E0324056EFF0E04206D
:10170800066E0650D46E05C0D3FF12001A6E1A502A
:10171800D8B402D0432A02D0000E436E43501200C0
:101728000F011999898812000F01219B8A8A1200DA
:10173800899284820F011991898012008EA002D0AB
:10174800010E1200000E12001A6E9EA2FED71AC0D9
:101758009AFF1200889E1200889C1200889A120034
:04176800889812004B
:020000040020DA
:10000000FF0FFF0FFF0FFF0FFF0FFF0FFF0FFF0F80
:020000040030CA
:0C0000008CFFFFF7ACCFFFFFFFFFFFFFFE
:00000001FF
