:0400000013EF00F00A
:060008005D82CBEF81F0E8
:100018005D80E0CF41F041C0E0FF5D90100031EF1E
:0200280081F065
:10FDA800001815AE15D5168015A8163F15D31600E0
:10FDB8001540158D16141520160015A115C015DA55
:10FDC8001612158116CF15D916F115DB1640152E0A
:10FDD80015A415A619FF1815AE15D5168015A81661
:10FDE8003F15D316001540158D161415201600154D
:10FDF800A115C815DA1602158116CF15D916F115F1
:10FE0800DB1640152E15A415A619FF1815AE15D525
:10FE1800168015A8163F15D316001540158D161413
:10FE28001520160015A115C815DA1612158116EF3A
:10FE380015D916A115DB1600152E15A415A619FF40
:10FE48001815AE15D5168015A8163F15D31600152A
:10FE580040158D16141520160015A115C815DA16AB
:10FE680012158116CF15D916F115DB1640152E156A
:10FE7800A415A619FF1815AE15D5168015A81627AE
:10FE880015D316001540158D16141520160015A14A
:10FE980015C815DA1610158116AF15D916F115DB28
:10FEA8001620152E15A415A619FF1815AE15D5166A
:10FEB8008015A8162715D316001540158D1614158C
:10FEC80020160015A115C815DA1602158116AF15EA
:10FED800D916F115DB1620152E15A415A619FF182D
:10FEE80015AE15A415D5165015A8163F15D316002E
:10FEF800154015AD168B15D9162215DB163515329A
:10FF0800158116FF15A615DA161219FF0001140A35
:10FF18006464323200093D00000428961008020289
:10FF2800800040000001140A6464323200127A0032
:10FF3800000428961008000080004000000100001E
:10FF48000000000000093D0000040000010100005D
:10FF5800080008000001140A6464323200127A00B2
:10FF6800000428960C052000600027000001140AF0
:10FF78006464323200127A00000428960C050020CE
:10FF8800600028001815A015C0154019FF1815A104
:10FF980015C8157F19FF1815A015C819FF1815A140
:10FFA80015C019FF1815A015C019FF1815A115C8F7
:10FFB80019FF1815A015C019FF1815A115C819FFA4
:10FFC8001815AE19FF1815AF19FF1815AE19FF1837
:10FFD80015AF19FF534E2C41424344454600534B3D
:10FFE8002C30340053412C3000434D4400414F4BDA
:07FFF800000A0D00200000CB
:020000040001F9
:10000000000E0F01116F000E196F8894839471EC2C
:1000100081F0838471EC81F089948494899289962B
:1000200089908490AE0EB3EC81F0D50EB3EC81F0E4
:10003000800EB3EC81F0A80EB3EC81F0270EB3EC88
:1000400081F0D30EB3EC81F0000EB3EC81F0400EE2
:10005000B3EC81F08D0EB3EC81F0140EB3EC81F0B3
:10006000200EB3EC81F0000EB3EC81F0A10EB3ECE6
:1000700081F0C80EB3EC81F0DA0EB3EC81F0120E11
:10008000B3EC81F0810EB3EC81F07F0EB3EC81F024
:10009000D90EB3EC81F0F10EB3EC81F0DB0EB3ECD2
:1000A00081F0200EB3EC81F0020EB3EC81F0A40ECF
:1000B000B3EC81F0A60EB3EC81F0D50EB3EC81F079
:1000C000800EB3EC81F0AF0EB3EC81F084841200AB
:1000D0004E6E4AC042F0436A000E456E080E446EF2
:1000E000C2EC80F042504D6E050E4D601200580E6D
:1000F0004E6401D012004D50B009B3EC81F04E5067
:100100000F0BB3EC81F04E380F0B1009B3EC81F0FC
:10011000000E4F6E580E4F24D96EDA6A000EDA22A6
:100120004D50270D600E4B6E010E4C6EF3504B265A
:10013000F4504C224E504B26000E4C224F504B2474
:10014000E16E000E4C20E26EDFCFE7FF4D50270D31
:10015000600E4B6E010E4C6EF3504B26F4504C2249
:100160004E504B26000E4C224F504B24D96E000EA1
:100170004C20DA6EDF50AAEC81F04F2A040E4F6457
:10018000C9D71200000E476E45AE06D0446C451E1E
:10019000D8B0452A010E476E43AE06D0426C431ECE
:1001A000D8B0432A010E471A000E496E000E486E61
:1001B00044504510D8B41CD0010E466E04D0D890DF
:1001C00044364536462A45AEFAD7D89048364936A1
:1001D0004450425C45504358D8A005D04450425E3C
:1001E0004550435A4880D89045324432462EEDD788
:1001F0004750D8B404D0486C491ED8B0492A48C0EA
:1002000042F049C043F01200436E000E466E465065
:10021000B009B3EC81F0000EB3EC81F0100EB3EC3A
:1002200081F084944350D8B40BD0000E446E848087
:10023000926895A0FED7442A7F0E4464F8D70BD06D
:10024000000E456E8480000E926E95A0FED7452A62
:100250007F0E4564F7D78484462A070E4664D7D7B5
:100260001200880EF66E030EF76E010EF86E00EEA9
:1002700050F010EE0DF00900F5CFEEFFE550E15023
:10028000FAE100EE60F0180EEE6AE806FDE100EE1D
:1002900001F0400EEE6AE806FDE15D905D9200011E
:1002A00085EF81F0000E0F01196F000E216F8A8813
:1002B000899689928A8496989650F00B0109966ED9
:1002C000959E958C090E0E01B76F0F0EF06F120EF2
:1002D000B96F100EF26F140EB86FCD91969E968A7C
:1002E0001200E0CFE8FF0001E8CF7BF0C80E7A6F84
:1002F000640E796F350E786F782FFED7792FFAD785
:100300007A2FF6D77BC0E0FF120052EC81F000ECB0
:1003100080F0000E04EC81F00A0E4A6E550E68EC77
:1003200080F0F7D7E0CFE8FF0001E8CF7EF07C0E49
:100330007D6F7D2FFED77EC0E0FF1200E0CFE8FF8B
:100340000001E8CF80F0350E7F6F7F2FFED780C091
:10035000E0FF1200426E8480849442C092FF95A018
:10036000FED784841200426E8490849442C092FF2F
:1003700095A0FED7848412000F0119998988120074
:100380000F01219B8A8A1200FFFFFFFFFFFFFFFF83
:05039000364949493621
:040396005D92110063
:020000040020DA
:10000000FF0FFF0FFF0FFF0FFF0FFF0FFF0FFF0F80
:020000040030CA
:0C0000008CFFFFF7ACCFFFFFFFFFFFFFFE
:00000001FF
