:0400000065EF00F0B8
:060008004182E2EF07F067
:100018004180D8CF14F0E8CF15F0E0CF16F0FACF32
:1000280017F0FBCF18F0E9CF19F0EACF1AF0E1CFBB
:100038001BF0E2CF1CF0D9CF1DF0DACF1EF0F3CFC2
:100048001FF0F4CF20F0F6CF21F0F7CF22F0F8CF51
:1000580023F0F5CF24F041C025F042C026F043C07C
:1000680027F044C028F040EC09F028C044F027C02D
:1000780043F026C042F025C041F024C0F5FF23C05C
:10008800F8FF22C0F7FF21C0F6FF20C0F4FF1FC011
:10009800F3FF1EC0DAFF1DC0D9FF1CC0E2FF1BC062
:1000A800E1FF1AC0EAFF19C0E9FF18C0FBFF17C03B
:1000B800FAFF16C0E0FF15C0E8FF14C0D8FF419052
:0600C800100063EF09F0D7
:100F0000000D0A48656C6C6F20576F726C6420424C
:0B0F1000726F27730A0D000D0A00002D
:100F1C000B0E0E01F86F100E8D6F0F0121910E014B
:100F2C009F879E85000E0001606F900E616FD00E42
:100F3C00626F030E636F6DC071F06EC072F06FC0A4
:100F4C0073F070C074F0020ED8907137723773372B
:100F5C007437E82EF9D771C064F072C065F073C0B5
:100F6C0066F074C067F073EC08F0FF0E00016025AA
:100F7C00766FFF0E6121776FFF0E6221786FFF0E87
:100F8C006321796F76C09BFE0E019C6B77C09CFE33
:100F9C009E999E9D9E8B9D9D9D899D8FC59D99CE55
:100FAC0075F099CE75F0C58FBD9F000E3F6E000E8B
:100FBC003E6E000E3D6E1200FACF01F0FBCF02F038
:100FCC00E9CF03F0EACF04F0E1CF05F0E2CF06F071
:100FDC00D9CF07F0DACF08F0F3CF09F0F4CF0AF04D
:100FEC00F6CF0BF0F7CF0CF0F8CF0DF0F5CF0EF0ED
:100FFC0041C00FF042C010F043C011F044C012F0D9
:10100C0012C044F011C043F010C042F00FC041F0C8
:10101C000EC0F5FF0DC0F8FF0CC0F7FF0BC0F6FFBC
:10102C000AC0F4FF09C0F3FF08C0DAFF07C0D9FFFC
:10103C0006C0E2FF05C0E1FF04C0EAFF03C0E9FF00
:10104C0002C0FBFF01C0FAFF419211006D0E0001BE
:10105C00616F000E626F68C063F0E7EC08F0000986
:10106C00D8B439D000016751405CD8A016D0FF0E1F
:10107C00696FFF0E6A6F40506B6F6C6B69516B2719
:10108C006A516C236B516525D96E6C516621DA6EF1
:10109C00000EDF6E000E406E1ED04050010DF3505E
:1010AC006525D96EF4506621DA6E6DC0DFFF402ADB
:1010BC000D0E6D19D8A4CAD740064050010DF3503F
:1010CC006525D96EF4506621DA6E000EDF6E000EC7
:1010DC00406E010E1200000E1200000E0001686F2F
:1010EC00000E696F000E6A6F000E6B6F6451651114
:1010FC0066116711D8B42AD0010E6C6F06D0D89047
:10110C0064376537663767376C2B67AFF8D7D8907D
:10111C00683769376A376B376451605D655161595F
:10112C006651625967516359D8A009D06451605F08
:10113C006551615B6651625B6751635B6881D890F6
:10114C0067336633653364336C2FE1D768C060F066
:10115C0069C061F06AC062F06BC063F01200800E6F
:10116C0000016D6F250E6E6F000E6F6F000E706FAD
:10117C008EEC07F0F28AF28EF28C010E0001616F98
:10118C000F0E626F14EC09F07A0E0001656F000E01
:10119C00666F4D0E676F000E686F2CEC08F000093F
:1011AC00D8B4F2D77A0E0001616F000E626F14ECA6
:1011BC0009F0170E0001616F0F0E626F14EC09F04D
:1011CC00E3D73F50D8B428D03D50010D290EF3245D
:1011DC00D96E000EF420DA6EDF500001646F3F060A
:1011EC003D2A130E3D6402D0000E3D6E0A0E3F18D0
:1011FC00D8A403D0110E70EC09F000016351D8B4DF
:10120C0003D0645170EC09F061C0D9FF62C0DAFF01
:10121C0064C0DFFF010E1200000E120016D061C078
:10122C00F6FF62C0F7FF000EF86E0E0EF76403D0E7
:10123C000800F55005D0F6CFD9FFF7CFDAFFDF5015
:10124C0070EC09F00001614B622B61C0F6FF62C0CB
:10125C00F7FF000EF86E0E0EF76403D00800F55081
:10126C0005D0F6CFD9FFF7CFDAFFDF500009D8B49D
:10127C001200D5D70E01CDAF1200140E3F601AD05C
:10128C003E50010D290EF324D96E000EF420DA6EB7
:10129C0099CEDFFF3F2A3E2A130E3E6402D0000E89
:1012AC003E6E100E3F18D8A412009EA3FED7130E4C
:1012BC009A6F120099CE13F0120000EE29F0180E5E
:1012CC00EE6AE806FDE141904192000EF86E0001D5
:1012DC00B5EF08F00001606F0E019EA3FDD760C052
:0412EC009AFE120054
:020000040020DA
:10000000FF0FFF0FFF0FFF0FFF0FFF0FFF0FFF0F80
:020000040030CA
:0C0000008CFFFFF7ACCFFFFFFFFFFFFFFE
:00000001FF
