:0400000063EF00F0BA
:06000800318265EF00F0FB
:100018003180D8CF19F0E8CF1AF0E0CF1BF0FACF33
:100028001CF0FBCF1DF0E9CF1EF0EACF1FF0E1CFA7
:1000380020F0E2CF21F0D9CF22F0DACF23F0F3CFAE
:1000480024F0F4CF25F0F6CF26F0F7CF27F0F8CF3D
:1000580028F0F5CF29F031C02AF032C02BF033C098
:100068002CF034C02DF02DC034F02CC033F02BC050
:1000780032F02AC031F029C0F5FF28C0F8FF27C0A8
:10008800F7FF26C0F6FF25C0F4FF24C0F3FF23C006
:10009800DAFF22C0D9FF21C0E2FF20C0E1FF1FC064
:1000A800EAFF1EC0E9FF1DC0FBFF1CC0FAFF1BC012
:1000B800E0FF1AC0E8FF19C0D8FF3190100022EF06
:1000C80001F0FACF07F0FBCF08F0E9CF09F0EACF4B
:1000D8000AF0E1CF0BF0E2CF0CF0D9CF0DF0DACF78
:1000E8000EF0F3CF0FF0F4CF10F0F6CF11F0F7CFFA
:1000F80012F0F8CF13F0F5CF14F031C015F032C07C
:1001080016F033C017F034C018F00E01CAAB11D086
:10011800CA9B4E0E026E200E016EEFEC00F03050BE
:10012800D8B404D0000E306E838803D0010E306E30
:10013800839818C034F017C033F016C032F015C0D9
:1001480031F014C0F5FF13C0F8FF12C0F7FF11C05B
:10015800F6FF10C0F4FF0FC0F3FF0EC0DAFF0DC0AA
:10016800D9FF0CC0E2FF0BC0E1FF0AC0EAFF09C0DB
:10017800E9FF08C0FBFF07C0FAFF31921100D580E4
:10018800D582D584D586D588D6501F0B4009D66E22
:10019800D688D650F00B0409D66E0E01CA9BC28BC6
:1001A800BA8BF28CF28EF28A2EC060F02FC061F00A
:1001B8000001601F611F604B612BFF0E6025626F9D
:1001C800FF0E6121636F6351D46E62C0D3FFD58E79
:1001D8000E01D78F120001C003F002C004F0031E05
:1001E800041E034A042AFF0E0324056EFF0E042092
:1001F800066E0650D46E05C0D3FF1200E0CFE8FFAC
:100208000001E8CF66F07C0E656F652FFED766C0EB
:10021800E0FF120028EC01F04E0E2F6E200E2E6E1D
:10022800C3EC00F00E01C28B0300FED70F01199931
:10023800898812000F01219B8A8A1200306A319046
:0C024800319200010EEF01F088981200C6
:020000040020DA
:10000000FF0FFF0FFF0FFF0FFF0FFF0FFF0FFF0F80
:020000040030CA
:0C0000008CFFFFF7ACCFFFFFFFFFFFFFFE
:00000001FF
