:0400000065EF00F0B8
:06000800428288EF07F0C0
:100018004280D8CF14F0E8CF15F0E0CF16F0FACF31
:1000280017F0FBCF18F0E9CF19F0EACF1AF0E1CFBB
:100038001BF0E2CF1CF0D9CF1DF0DACF1EF0F3CFC2
:100048001FF0F4CF20F0F6CF21F0F7CF22F0F8CF51
:1000580023F0F5CF24F042C025F043C026F044C079
:1000680027F045C028F0C8EC08F028C045F027C0A4
:1000780044F026C043F025C042F024C0F5FF23C059
:10008800F8FF22C0F7FF21C0F6FF20C0F4FF1FC011
:10009800F3FF1EC0DAFF1DC0D9FF1CC0E2FF1BC062
:1000A800E1FF1AC0EAFF19C0E9FF18C0FBFF17C03B
:1000B800FAFF16C0E0FF15C0E8FF14C0D8FF429051
:0600C8001000F3EF08F048
:100F0000000A0D5374617274204150500A0D0000A4
:100F1000FACF01F0FBCF02F0E9CF03F0EACF04F003
:100F2000E1CF05F0E2CF06F0D9CF07F0DACF08F035
:100F3000F3CF09F0F4CF0AF0F6CF0BF0F7CF0CF0B7
:100F4000F8CF0DF0F5CF0EF042C00FF043C010F017
:100F500044C011F045C012F012C045F011C044F079
:100F600010C043F00FC042F00EC0F5FF0DC0F8FFF7
:100F70000CC0F7FF0BC0F6FF0AC0F4FF09C0F3FF77
:100F800008C0DAFF07C0D9FF06C0E2FF05C0E1FFD5
:100F900004C0EAFF03C0E9FF02C0FBFF01C0FAFF83
:100FA00042921100000E0001686F000E696F000E82
:100FB0006A6F000E6B6F6451651166116711D8B4CA
:100FC0002AD0010E6C6F06D0D8906437653766372B
:100FD00067376C2B67AFF8D7D890683769376A37AF
:100FE0006B376451605D6551615966516259675153
:100FF0006359D8A009D06451605F6551615B665147
:10100000625B6751635B6881D89067336633653391
:1010100064336C2FE1D768C060F069C061F06AC0CA
:1010200062F06BC063F012000F01219F090E0E01E8
:10103000FD6F170EB56F9D8E9D9C9D88240E9E6E34
:10104000080E9F6E000E0001606F900E616FD00E53
:10105000626F030E636F6DC071F06EC072F06FC08F
:1010600073F070C074F0020ED89071377237733716
:101070007437E82EF9D771C064F072C065F073C0A0
:1010800066F074C067F0D2EC07F0FF0E0001602537
:10109000756FFF0E6121766F76519C6E75C09BFF58
:1010A0000E01CD9BC58BBD9B1200800E00016D6FA4
:1010B000250E6E6F000E6F6F000E706F14EC08F04F
:1010C000F28AF28CF28E010E0001666F0F0E676FCE
:1010D00082EC08F0770E0001606F000E616F000E69
:1010E000626FE3EC08F00009D8B4F4D7000177513F
:1010F0001AEC09F00C0E0001666F0F0E676F82ECA0
:1011000008F0E8D7000E00016B6F000E6A6F11D077
:101110006A516625686F6B516721696F68C0F6FF79
:1011200069C0F7FF0800F5501AEC09F000016A4B9E
:101130006B2B66C060F067C061F0A7EC08F000019F
:1011400060516A5D61516B59D8B01200E1D760C03F
:1011500064F061C065F003D00001644B652B64C08E
:10116000F6FF65C0F7FF0800F5500009D8A4F4D7D2
:1011700060C062F061C063F00001621F631F624BD8
:10118000632B64516225606F65516321616F1200AA
:101190000E01CDAB1200140E3F6012D03E50010D77
:1011A000290EF324D96E000EF420DA6E99CFDFFFFA
:1011B0003F2A3E2A130E3E641200000E3E6E1200BD
:1011C00099CF13F01200140E3F6012003D50010D34
:1011D000290EF324D96E000EF420DA6E99CFDFFFCA
:1011E0003F063D2A120000EE29F0190EEE6AE806CD
:1011F000FDE142904292000EF86E0F0EF76E000174
:1012000055EF08F0E0CFE8FF0001E8CF7CF0350EA5
:101210007B6F7B2FFED77CC0E0FF1200E0CFE8FFA2
:101220000001E8CF7AF07C0E796F792FFED77AC073
:10123000E0FF12000001606F9EA2FED760C09AFF1F
:0212400012009A
:020000040020DA
:10000000FF0FFF0FFF0FFF0FFF0FFF0FFF0FFF0F80
:020000040030CA
:0C0000008CFFFFF7ACCFFFFFFFFFFFFFFE
:00000001FF
