:040000009EEFFFF080
:020000040001F9
:10FF2A0088981200889A1200889C12000F01889EF5
:10FF3A0012000001C5EFFFF00F011999898812001C
:10FF4A000F01219B8A8A1200E0CFE8FF0001E8CF67
:10FF5A006CF0350E6B6F6B2FFED76CC0E0FF120092
:10FF6A00E0CFE8FF0001E8CF6AF0640E696F350E52
:10FF7A00686F682FFED7692FFAD76AC0E0FF350C81
:10FF8A00A1ECFFF0A5ECFFF095ECFFF097ECFFF089
:10FF9A0099ECFFF09BECFFF08388D8ECFFF0839894
:10FFAA00D8ECFFF0F9D7E0CFE8FF0001E8CF67F01F
:10FFBA00C80E666F640E656F350E646F642FFED7C8
:10FFCA00652FFAD7662FF6D767C0E0FF350CE0CF6A
:10FFDA00E8FF0001E8CF63F0280E626F640E616FDC
:10FFEA00350E606F602FFED7612FFAD7622FF6D7D2
:06FFFA0063C0E0FF350CBE
:020000040020DA
:10000000FF0FFF0FFF0FFF0FFF0FFF0FFF0FFF0F80
:020000040030CA
:0C0000008CFFFFF7ACCFFFFFFFFFFFFFFE
:00000001FF
